:020000040800F2
:10000000E80D002001010008BF1D00086112000872
:10001000BB1D0008DD09000837360008000000009D
:100020000000000000000000000000008B2E00080F
:100030009D0B000800000000C9280008713200086C
:100040001B0100081B0100081B0100081B01000820
:100050001B0100081B0100081B0100081B01000810
:100060001B0100081B0100081B0100081B01000800
:100070001B0100081B0100081B0100081B010008F0
:100080001B0100081B0100081B0100081B010008E0
:100090001B0100081B0100081B0100081B010008D0
:1000A0001B0100081B0100081B0100081B010008C0
:1000B0001B0100081B0100081B0100081B010008B0
:1000C0001B0100081B0100081B0100081B010008A0
:1000D0001B010008D53200081D33000865330008F5
:1000E0001B0100081B0100081B010008DFF80CD0F1
:1000F00000F0B0FB00480047C9430008E80D0020AD
:100100000648804706480047FEE7FEE7FEE7FEE7B1
:10011000FEE7FEE7FEE7FEE7FEE7FEE775320008D2
:10012000ED000008A0F14101192900D820307047E6
:1001300040EA01039B0703D009E008C9121F08C069
:10014000042AFAD203E011F8013B00F8013B521EE9
:10015000F9D27047D2B201E000F8012B491EFBD260
:1001600070470022F6E710B513460A4604461946C2
:10017000FFF7F0FF204610BD30B505462A460B4676
:1001800012F8010B13F8014B08B1A042F8D01CB1D2
:10019000002802D06D1CF1E7284630BDCAB2401ECF
:1001A00010F8011F8A4202D00029F9D100207047BF
:1001B000421C10F8011B0029FBD1801A704710B5B2
:1001C000002200E0521C835C8C5CA34201D1002B16
:1001D000F8D1D8B2E1B2401A10BD10B5044600E023
:1001E000401C0378002BFBD100E0401C521E04D3BE
:1001F00011F8013B0370002BF7D10021017020465C
:1002000010BD30B505460020034600E05B1C93425C
:1002100005D2EC5CC85C201A01D1002CF6D130BDAF
:1002200070B5064603F090FA046805460A220021DC
:10023000304600F0DBF92C6070BD2DE9FE4F8046A2
:1002400081EA0300C00F0C46009021F0004123F02A
:100250000045B8EB0200A94105D240462146904630
:100260001C460B46024623F00040104347D0270DA2
:10027000C7F30A00C3F30A510290401A01904028C4
:100280006BDAC3F3130040F4801B0098924620B150
:100290000023D2EB030A63EB0B0B01985946C0F124
:1002A0004002504600F071F906460D465046594648
:1002B000019A00F089F910EB08006141002487EAF7
:1002C000115284EAE7731A4340D0009A62B3019A4C
:1002D000012A4FEA075215DC001B61EB02014FF0C7
:1002E000004202EA0752CDE90042001C41F58011AC
:1002F00032462B4600F0C1F903B0BDE8F08F40460E
:100300002146F9E7001B61EB0201001C41F5801357
:1003100000185B412018A2F5001747EB030140EAE3
:10032000D570B6196D4111E06D084FEA360645EA01
:10033000C0754FEA0752001B61EB0201001C41F53A
:10034000801149084FEA30000019514132462B46CE
:1003500003B0BDE8F04F00F081B9009801224000E1
:100360000023D0EB020263EBE073009821464FEAD2
:10037000E074B8EB000061EB0401E9E783F00043AF
:100380005BE781F0004158E72DE9FE4F81EA030465
:1003900004F0004421F0004100944FF0000B23F0E2
:1003A000004350EA01045ED052EA03045BD0C3F379
:1003B0000A54C1F30A552C44A4F2F3340194A0FB6F
:1003C0000254C1F3130141F48011C3F3130343F446
:1003D000801301FB024400FB034E840A970A44EA9F
:1003E000815447EA8357A4FB076802958D0A05FBF1
:1003F00007854FEA932C04FB0C542705029D4FEA16
:10040000065847EA1637B5EB08056EEB070C870E62
:10041000920E47EA811742EA8312A7FB0201B6EB6C
:100420000B0164EB00042B0D43EA0C335E1844EB24
:100430001C50DA465146E7FB0201C5F313044FEAAC
:100440000B3343EA14534FEA0432019C43EA060398
:10045000A4F10C040294009CCDE900B400F00DF965
:1004600003B0BDE8F08F00200146F9E70EB5C10FDB
:1004700080EAE0700844CA07002140F233438DE867
:100480000E000A460B4600F0F8F803B000BD70B548
:10049000C1F30A5201F000450024C1F3130140F2F8
:1004A000FF3341F480119A4201DA002070BD40F21E
:1004B00033439A42A2F2334203DC524200F074F812
:1004C00000E090402C43F1D0404270BD30B5041E96
:1004D00071F1000404DB4FF00044404264EB010181
:1004E000141E73F1000405DB1C464FF0004352421A
:1004F00063EB0403994208BF904230BD30B50B4610
:10050000014600202022012409E021FA02F59D4243
:1005100005D303FA02F5491B04FA02F52844151E17
:10052000A2F10102F1DC30BD2DE9F05F05460020AB
:1005300092469B4688460646814640241BE0284654
:1005400041464746224600F02FF853465A46C01A05
:10055000914110D311461846224600F016F82D1A84
:1005600067EB01084F4622460120002100F00DF8FC
:1005700017EB00094E41201EA4F10104DFDC4846C0
:1005800031462A464346BDE8F09F202A04DB203A44
:1005900000FA02F1002070479140C2F1200320FAD6
:1005A00003F3194390407047202A04DB203A21FAD4
:1005B00002F00021704721FA02F3D040C2F120027C
:1005C0009140084319467047202A06DBCB17203A92
:1005D00041FA02F043EAE07306E041FA02F3D04048
:1005E000C2F1200291400843194670472DE9F047B7
:1005F00091460F4680460446002614F8015B2DB153
:1006000000F03AF90068405DC007F6D12B2D02D00A
:100610002D2D18D0641E4A463946204600F030F988
:1006200027B13968A14201D1C7F8008071054FF0A8
:1006300002040BD54042002803DD03F085F8046076
:10064000A007BDE8F08746F48066E4E70028F8DA02
:1006500003F07AF804606FF00040F2E710B5141E62
:1006600073F1000408DA401C41F1000192185B416B
:100670001A4301D120F0010010BD2DE9F04D924642
:100680009B4611B1B1FA81F202E0B0FA80F2203259
:100690009046FFF77AFF04460F4640EA0A0041EA17
:1006A0000B0153465A46084313D0114653EA010042
:1006B00019D0C8F140025046FFF776FF05460E46B6
:1006C000504659464246FFF760FF084305D00120D7
:1006D00004E020463946BDE8F08D0020054346EA97
:1006E000E0762C4337430A986305E40AA0EB080040
:1006F0000022FD0A44EA47540A3002D50020014690
:10070000E9E7010510196941DDE90845001969416A
:10071000BDE8F04DA2E72DE9F04D81EA030404F0B5
:10072000004B21F0004514464FF0000A23F0004131
:1007300050EA050220D054EA01021DD0C5F30A5741
:100740000246C5F31303C1F31300C1F30A5640F484
:10075000801543F48013A7EB0608101BD64608F259
:10076000FD3873EB050002D308F1010801E092188F
:100770005B41B8F1000F03DA00200146BDE8F08DBF
:1007800000204FF48011064684460EE0171B73EBE1
:10079000050705D3121B63EB050306434CEA010C66
:1007A00049084FEA300092185B4150EA0107EDD149
:1007B00052EA030012D082EA040083EA05010843EA
:1007C00005D0101BAB4106D20122002306E0002217
:1007D0004FF0004302E06FF0010253101AEB0600E5
:1007E0004CEB085110EB0A0041EB0B01BDE8F04D5A
:1007F000FFF734BF70B521F0004303430CD0C1F3C1
:100800000A550024D5EB040564EB0403D617AD1A92
:10081000B34102DB0020014670BD201841EB0251BC
:1008200070BDC1F30A52C1F3130140F2FF3341F42A
:1008300080119A4202DA00200146704740F23343A9
:100840009A42A2F2334202DC5242FFF7ADBEFFF7FA
:100850009CBE0000064C074D06E0E06840F0010336
:1008600094E8070098471034AC42F6D3FFF742FCF7
:100870005869000878690008004870473469000822
:100880002DE9F05F82460078002715468B460AF175
:100890000104B946302801D09DB113E014F8010BD2
:1008A0000127782803D0582801D045B10AE00DB1BE
:1008B000102D07D10027102514F8010B02E00825A0
:1008C00000E00A250026B0460EE005FB080005FB07
:1008D00006F1012701EB10461FFA80F8B6F5803FBC
:1008E00000D3B94614F8010B294600F069F8002836
:1008F000EBDABBF1000F05D00FB1641E00E05446E7
:10090000CBF80040B9F1000F06D002F01DFF022124
:100910000160C81EBDE8F09F48EA0640FAE72DE9ED
:10092000F04D00231A461B1A8A4103DB00200146C2
:10093000BDE8F08DC1F30A52C1F3130141F48015F3
:100940004FF0000BD10702D100186D41521E002755
:10095000044640F2FF11384601EB620A3E468046EB
:10096000024600204FF48011FFF71EFEC2197141AC
:10097000BB1846EB0100B4EB030C75EB000C04D381
:10098000E41A65EB000517460E46241908F101002C
:100990006D4180463428E3DDF91946EB0600091B5A
:1009A000A84103D24FF0FF32134601E00022134664
:1009B0001BEB070046EB0A51BDE8F04DFFF74EBEBA
:1009C0003A2800D2303820F02002412A01D3A2F187
:1009D0003700884201D34FF0FF30704700BFFEE779
:1009E00010B50024042000F03FF804E0601CC4B2FD
:1009F000012003F08DFC02210F4800F010FB08B12C
:100A0000642CF3DB642C01DB002010BD002404E027
:100A1000601CC4B2012003F07BFC0221064800F0F8
:100A2000FEFA08B9642CF3DB642C01DB0020ECE750
:100A300000240120E9E700000008014008B5012179
:100A4000042001F097FF0220ADF8000010208DF87F
:100A5000030003208DF802006946024800F054FAB2
:100A600008BD00000008014038B504460220ADF87A
:100A700000008DF8034003208DF80200694602480B
:100A800000F042FA38BD00000008014010B5002413
:100A900004E0601CC4B2012003F03AFC02211048BB
:100AA00000F0BDFA08B1642CF3DB002404E0601C04
:100AB000C4B2012003F02CFC0221094800F0AFFA77
:100AC00008B9642CF3DB0024282003F021FC022168
:100AD000034800F0A4FA08B1012010BD0020FCE793
:100AE0000008014070B50024002506E06006040EF1
:100AF000FFF7CCFF0443681CC5B2082DF6DB204687
:100B000070BD2DE9FC4105460E461746984600F09B
:100B10002FF8FFF765FF30B3002405E0FFF7E2FF91
:100B20000DF80400601CC4B2052CF7DB9DF8000032
:100B30009DF8011008449DF8021008449DF8031028
:100B400008449DF80410884210D19DF802002870D6
:100B50009DF8030038709DF8000030709DF801008A
:100B600088F8000002E00020BDE8FC810120FBE7DE
:100B700010B51020FFF778FF0221074800F058FA5F
:100B8000142003F09FFB0221034800F053FA0D20CC
:100B900003F0BEFB10BD00000008014070470000DC
:100BA00010B580210348FFF7DCFA002002490880D5
:100BB00010BD00005A0100202E00002070B505462F
:100BC000002400BF00F086F9C8B9114911A002F055
:100BD00071FD16A10E48FFF7CFFA044624B915A1FE
:100BE000194802F043FD0AE03A212046FFF7D6FA01
:100BF000044614B1641C204670BD0020FCE70520AB
:100C000003F060FB681E85B2002DDBDC0020F3E7FB
:100C10005A0100207265635F657370383236365F43
:100C20006275663A202025730D0A00004950442C55
:100C3000000000002249504422206E6F7420666F2D
:100C4000756E640D0A0000000044004010B502F00B
:100C50009FF9FFF7A5FF32A1334802F007FD03E03B
:100C60004FF4FA7003F02EFB30A131A000F0E2F84F
:100C70000028F5D130A12C4802F0F8FC2DA131A0BC
:100C800000F0D8F84FF4FA7003F01CFB29A130A053
:100C900000F0D0F84FF4FA7003F014FB30A12248B2
:100CA00002F0E4FC03E04FF4FA7003F00BFB1FA129
:100CB0002EA000F0BFF80028F5D130A11A4802F0AC
:100CC000D5FC03E04FF4FA7003F0FCFA17A12FA053
:100CD00000F0B0F80028F5D130A1134802F0C6FCAE
:100CE00003E04FF47A7003F0EDFA2FA130A000F08A
:100CF000A1F80028F5D138A10B4802F0B7FC03E0B9
:100D00004FF47A7003F0DEFA37A139A000F092F8C0
:100D10000028F5D141A1044802F0A8FC10BD000054
:100D2000302E2041540D0A00004400404F4B00007B
:100D300041540D0A00000000312E205253540D0A78
:100D40000000000041542B5253540D0A00000000D3
:100D500041542B434950434C4F53450D0A0000006A
:100D6000322E2043574D4F44450D0A0041542B432A
:100D7000574D4F44453D310D0A000000332E2041B0
:100D8000542B4357444843500D0A000041542B4311
:100D900057444843503D312C310D0A00342E204336
:100DA000574A41500D0A0000474F54204950000057
:100DB00041542B43574A41503D2254502D4C494EEB
:100DC0004B5F36433130222C227468696E6B3132AE
:100DD000332E220D0A000000352E20434950535473
:100DE0004152540D0A000000434F4E4E45435400FB
:100DF00041542B43495053544152543D2254435083
:100E0000222C2234322E3139342E3231342E3130EC
:100E100031222C313838330D0A000000362E20459F
:100E200053503832363620496E6974204F4B0D0AC4
:100E30000000000070B504460D46C826204602F0AA
:100E40001BF912E000F046F860B929460A48FFF79E
:100E500093F938B1084909A002F02CFCFFF7A0FE75
:100E6000002070BD0A2003F02DFA3000A6F1010128
:100E7000CEB2E7D10120F4E75A010020636D645F30
:100E8000657370383236365F6275663A2020257396
:100E90000D0A000030B589B005460C46FFF780FE0C
:100EA000224607A101A802F015FC09A101A8FFF73D
:100EB000C1FF18B92146284602F0C0FB09B030BD79
:100EC00041542B43495053454E443D25640D0A007F
:100ED0003E0000000A48008808B901207047084811
:100EE000008808490988884203D100200449088005
:100EF000F4E703480088034908800120EEE700007A
:100F00002E000020300000202DE9F041024600258F
:100F10000026002000230024002791F803C00CF0D5
:100F20000F0591F803C00CF0100CBCF1000F03D0BA
:100F300091F802C04CEA050591F800C0BCF1000F21
:100F400031D0146800202BE04FF0010C0CFA00F3B4
:100F5000B1F800C00CEA03069E4220D183004FF096
:100F60000F0C0CFA03F7BC4305FA03FC4CEA04042B
:100F700091F803C0BCF1280F06D14FF0010C0CFA18
:100F800000FCC2F814C00AE091F803C0BCF1480F9D
:100F900005D14FF0010C0CFA00FCC2F810C0401C47
:100FA0000828D1D31460B1F800C0BCF1FF0F34DDC4
:100FB000546800202EE000F1080C4FF0010808FAF8
:100FC0000CF3B1F800C00CEA03069E4221D1830065
:100FD0004FF00F0C0CFA03F7BC4305FA03FC4CEA84
:100FE000040491F803C0BCF1280F05D100F1080CEE
:100FF00008FA0CF8C2F8148091F803C0BCF1480F4D
:1010000007D100F1080C4FF0010808FA0CF8C2F8FB
:101010001080401C0828CED35460BDE8F081024601
:10102000002093680B400BB1012000E000207047C6
:1010300041617047016170472DE9F84F06460F4640
:1010400092469946DDF828B04FF0000800240025AC
:10105000AAF1200000F0FF087F2E02DD0026B81C58
:10106000C7B2B9F1100F30D100242BE0BBF1000F53
:1010700005D004EB08103249085C009006E004EB50
:1010800008102F49085CC043C0B20090002515E04D
:10109000802028410099084038B13A19D1B272191C
:1010A000D0B2012200F0CAFF06E03A19D1B272199B
:1010B000D0B2002200F0C2FF681CC5B2082DE7DBE9
:1010C000601CC4B2102CD1DB35E0B9F1080F30D16F
:1010D00000242BE0BBF1000F05D01A4800EBC8003C
:1010E000005D009006E0174800EBC800005DC043BB
:1010F000C0B20090002515E08020284100990840EA
:1011000038B13A19D1B27219D0B2012200F096FF6B
:1011100006E03A19D1B27219D0B2002200F08EFF67
:10112000681CC5B2082DE7DB601CC4B2082CD1DBFB
:1011300001E0BDE8F88F00F099FE00BFF9E700007C
:101140003D5B0008455800082DE9FF4F83B08046FD
:1011500092461E46DDE9104B00200290102C05D16E
:10116000204604EBD071C1F347070BE0082C06D1F1
:10117000204604EBD0714910891CCFB202E007B0C1
:10118000BDE8F08F002530E0701B401EC1B20A2080
:1011900003F0B2FABAFBF0F00A21B0FBF1F201FB66
:1011A0001209029890B9701EA8420FDDB9F1000F24
:1011B0000AD107FB0581C8B223462022CDF800B032
:1011C0000499FFF739FF0EE00120029009F1300188
:1011D000CAB207FB0581C8B22346CDF800B0049916
:1011E000FFF72AFF00BF681CC5B2B542CCDB00BFC9
:1011F000C5E72DE9F84F0546894616461C46DDF839
:1012000028A00027102C05D1204604EBD071C1F393
:1012100047080BE0082C07D1204604EBD071491099
:10122000891C01F0FF0801E0BDE8F88F13E0CDF85C
:1012300000A0F25D234649462846FFF7FDFE05EB78
:101240000800C5B2782D04DD002509EB040000F08C
:10125000FF09781CC7B2F05D0028E8D100BFE3E7C2
:1012600000BFFEE710B54FF400510248FFF7E2FE61
:1012700010BD00000010014010B54FF400510248AD
:10128000FFF7D6FE10BD00000010014008B5012197
:10129000102001F06FFB4FF40050ADF8000010205B
:1012A0008DF8030003208DF8020069460148FFF71E
:1012B0002BFE08BD0010014010B50446207B01281C
:1012C00002D1206803F058F8002020606060A06020
:1012D000207310BD0246002301230DE002F07F00C1
:1012E0000870D2092AB1087840F080000870491CC3
:1012F00001E0184670475B1C042BEFDD4FF0FF3018
:10130000F8E770B504460E460025206898B901201C
:101310002073304603F0BAF920602068E0B1002065
:101320006060A66003E00020216848556D1CA0683D
:10133000A842F8D810E00220207303E000202168C2
:1013400048556D1CA068A842F8D800206060A068CD
:10135000B04201D20020206070BD00002DE9FF5F87
:1013600007460D4690463846FEF722FF86B22846CD
:10137000FEF71EFF1FFA80FA4FF00009F01D03F080
:1013800085F904461CB9012004B0BDE8F09FF11DA9
:101390002046FEF7E6FE12A0016821608088A0804A
:1013A000324639462046FEF718FF2846FEF700FF72
:1013B00083460120002100915B462A46CDE90208C0
:1013C000019121460A2000F05FF910B94FF00009A1
:1013D00001E04FF00109204602F0CEFF4846D3E776
:1013E00024637273702F00002DE9FF4F83B0824693
:1013F0008B469146159C0025002002900F270190F6
:101400004846FEF7D5FE0FFA80F8B9F1000F03D178
:10141000012007B0BDE8F08F08F10200384487B220
:10142000109808B145F00205129878B145F004050E
:101430001298FEF7BDFEC0B202901398FEF7B8FEF8
:1014400001460298001D0844384487B2119820B123
:10145000012804D0022808D104E000BF07E045F0CD
:101460000C0504E045F0140501E00220D1E700BFBF
:10147000149808B145F02405BAF1000F02D0BBF171
:10148000000F01D10320C4E745F0C0055046FEF728
:101490008FFE06465846FEF78BFE3044001D38444A
:1014A00087B239462046FFF72CFF206808B9042090
:1014B000AFE739462068FEF754FE10216268501CE1
:1014C000606020688154D4E90023D118781FFFF7A9
:1014D00001FF00B201900198002804DA2046FFF7CE
:1014E000EBFE052095E761680198084460600021E3
:1014F0006268501C60602068815404216268501C3E
:101500006060206881544D216268501C60602068D2
:10151000815451216268501C6060206881545421BC
:101520006268501C6060206881546268501C606072
:101530002068815404216268501C606020688154D6
:101540006168481C6060206845540698010A62681A
:10155000501C6060206881540698C1B26268501CBB
:10156000606020688154C8F307216268501C606085
:10157000206881546268501C6060206800F8028016
:10158000D4E90012881842464946FEF726FE6068F4
:101590004044606005F00400B8B30026139808B911
:1015A00038A013901298FEF703FE86B2310A6268E3
:1015B000501C6060206881546268501C6060206824
:1015C0008654D4E90012881832461299FEF705FEB7
:1015D0006068304460601398FEF7EAFD86B2310A15
:1015E0006268501C6060206881546268501C6060B2
:1015F00020688654D4E90012881832461399FEF701
:10160000ECFD60683044606000BF05F08000C8B148
:101610005046FEF7CDFD86B2310A6268501C60600C
:10162000206881546268501C606020688654D4E948
:101630000012881832465146FEF7CFFD60683044EC
:10164000606000BF05F04000C8B15846FEF7B0FD2D
:1016500086B2310A6268501C6060206881546268FA
:10166000501C606020688654D4E900128818324605
:101670005946FEF7B2FD60683044606000BF00204C
:10168000C7E60000000000002DE9FF4F83B083464D
:1016900017469946139C00250026002002900190D1
:1016A0008046BBF1000F03D1012007B0BDE8F08FE9
:1016B00000260AE00498805D232803D00498805D0A
:1016C0002B2801D10220F0E7761C0498805D0028C9
:1016D000F0D148F03008119808B148F0010806EB45
:1016E0000900851C109820B1012804D002280AD1D5
:1016F00005E000BF09E048F00208AD1C05E048F035
:101700000408AD1C01E00320CFE700BF8FB3387899
:10171000022821D14FF0000A00BF50460AF1010A09
:10172000385C7D28F9D1AAF1030A0AF1070002907A
:101730000298A9EB000AE81CA0EB0A012046FFF77B
:10174000E0FD206808B90420AFE7EA1CA2EB0A011B
:101750002068FEF706FD19E0691D2046FFF7D1FD60
:10176000206808B90420A0E7691D2068FEF7F9FC8D
:101770000CE0FFE7691D2046FFF7C3FD206808B9AC
:10178000042092E7691D2068FEF7EBFC6168481CA5
:101790006060206800F80180D4E9000281182846C2
:1017A000FFF798FD01900198002804DA2046FFF722
:1017B00083FD052079E76168019808446060C6F3FD
:1017C00007216268501C6060206881546268501C68
:1017D000606020688654D4E9001288183246049963
:1017E000FEF7FBFC606830446060109860B14FEA1F
:1017F0001B216268501C6060206881546268501C24
:101800006060206800F802B0C7B1387802280BD1B8
:10181000D4E9001288183946029AFEF789FC6168FB
:1018200002980844606009E0D4E9001288184A462A
:101830003946FEF77DFC606848446060002034E76C
:1018400070B505460C4604212046FFF75AFD206876
:1018500008B9012070BD70216268501C606020686A
:10186000815402216268501C6060206881542912F2
:101870006268501C6060206881546268501C60601F
:10188000206885540020E5E770B505460C46042124
:101890002046FFF736FD206808B9012070BD62219F
:1018A0006268501C60602068815402216268501C8C
:1018B00060602068815429126268501C6060206852
:1018C00081546268501C6060206885540020E5E700
:1018D0002DE9FF5F8046174699460E9C0026B246CA
:1018E000B3460025B8F1000F03D1012004B0BDE8D4
:1018F000F09F0BE057F8250008B90220F6E757F8EB
:101900002500FEF755FC0644681CC5B24D45F1DBC9
:1019100009EB4900801C00EB060A0AF1050120468C
:10192000FFF7EFFC206808B90320DFE78221626837
:10193000501C606020688154D4E900028118504630
:10194000FFF7C8FC0FFA80FBBBF1000F04DA20465A
:10195000FFF7B2FC0420C9E76068584460604FEAB2
:1019600018216268501C6060206881546268501CB5
:101970006060206800F80280002524E057F8250008
:10198000FEF716FC0646C6F307216268501C60602D
:10199000206881546268501C606020688654D4E9D5
:1019A0000023D01857F825103246FEF716FC606861
:1019B000304460600198C1B26268501C6060206869
:1019C0008154681CC5B24D45D8DB00208EE7F0B5C8
:1019D00004460D462646012300201060002114E035
:1019E000775C07F07F07106807FB03001060705CEE
:1019F00000F0800008B9481CF0BDDB01B3F5001F02
:101A000002D36FF00100F7E7491CA942E8DB4FF071
:101A1000FF30F1E72DE9F84380460C4615461E4697
:101A20002F2108F10600FEF7B9FB074600200090C1
:101A300017B90120BDE8F8837F1C6A46042108F12C
:101A40000100FFF7C4FF252002F020FE206020687F
:101A500008B90220EEE725212068FEF782FB242248
:101A600039462068FEF764FB243700982C38308014
:101A70003188481C02F00AFE2860286820B92068D6
:101A800002F07AFC0320D5E73288511C2868FEF763
:101A900068FB328839462868FEF74AFB0020C9E710
:101AA00001464878022801D001207047887810B19B
:101AB0008878012801D1C878F7E7FF20F5E7000012
:101AC0002DE9FC5F81460D4614461E46DDE90C8B70
:101AD00099F8000000F00F0A002001900AF00800B9
:101AE0000090CAF341008BF8000001AA042109F11B
:101AF0000100FFF76CFF4844471C0198022802D3FD
:101B00000AF0010010B1FF20BDE8FC9F7878397819
:101B100040EA012020802088801C0199884201D958
:101B2000FF20F1E754A1B81CFEF726FB08B10F20F7
:101B3000EAE79BF8000020B101283DD0022877D1C8
:101B40003BE0009808B1FF20DEE72188481C02F046
:101B50009DFD2860286808B9FF20D5E72288511C20
:101B60002868FEF7FEFA2288B91C2868FEF7E0FA1A
:101B70000198801E2188401AA8F80000B8F80010CB
:101B8000481C02F083FD3060306820B9286802F0FC
:101B9000F3FBFF20B8E7B8F80020511C3068FEF7CF
:101BA000E0FAB8F80020B4F800C0BB1C0CEB03014D
:101BB0003068FEF7BDFA4FE000BF2088801C019915
:101BC000884201D9FF209FE72088C01C395C20880B
:101BD000801C385C41EA00210E9801800E9808B9FB
:101BE000FF2091E72188481C02F050FD28602868FA
:101BF00008B9FF2088E72288511C2868FEF7B1FA4F
:101C00002288B91C2868FEF793FA0198001F2188E2
:101C1000401AA8F80000B8F80010481C02F036FD81
:101C20003060306828B9286802F0A6FBFF206BE717
:101C300010E0B8F80020511C3068FEF792FAB8F8AE
:101C40000020B4F800C03B1D0CEB03013068FEF728
:101C50006FFA01E0FF2057E700BF2B212846FEF76F
:101C60009DFA20B923212846FEF798FA08B1FF20F3
:101C70004AE7002048E70000246372657100000015
:101C800001464878022801D001207047887820B9A1
:101C9000C8780A2801D10020F7E70120F5E70146BE
:101CA0004878022801D001207047887820B9C87888
:101CB0000A2801D10020F7E70120F5E7014648781E
:101CC000022801D001207047887820B9C8780A28F6
:101CD00001D10020F7E70120F5E7024650780228FD
:101CE00001D0012070479078B0EB112F05D1D0784A
:101CF000CBB2984201D10020F4E70120F2E70000C6
:101D0000F8B50446FF2720780511012D01DB0E2DC3
:101D100001DD3846F8BD032D24D1002000906A462D
:101D20000421601CFFF753FE2044461C0098022843
:101D300003D3207800F0010008B1FF20EAE77078B3
:101D4000317840EA0120801C0099884201D9FF20A7
:101D5000E0E706A1B01CFEF70FFA08B10F2700E07C
:101D6000032700E02F463846D4E70000246372655D
:101D7000710000000146FF208A78A2B9CA78142AAF
:101D800011D10A7932B1012A05D0022A04D0802A61
:101D900006D103E000BF00BF002003E0012001E006
:101DA000022000BF00BF7047014601208A781AB99F
:101DB000CA781E2A00D10020704700BFFEE7704796
:101DC00070B5002100230F22C47804B3154C246899
:101DD00004F4E064C4F5E064210AC1F10403CA40DC
:101DE000447804FA03F184781440214309010E4C2D
:101DF0000678A155047804F01F050124AC4005784D
:101E00006D11AD0005F1E025C5F8004109E0047849
:101E100004F01F050124AC40044D0678761145F806
:101E2000264070BD0CED00E000E400E080E100E041
:101E300002490143024A1160704700000000FA05A0
:101E40000CED00E010B5044634B1FF224FF4806180
:101E50000548FEF77FF904E04FF480610248FEF781
:101E600080F900F003F810BDE603002070B50024EF
:101E70001BE004F1B000002100F020F90021084629
:101E800000F01CF90021102000F018F9002508E0EE
:101E900005EBC411064A505C012100F00FF9681CE3
:101EA000C5B2802DF4DB601CC4B2082CE1DB70BD30
:101EB000E603002010B500F06BFF00F06BF8C820BF
:101EC00002F000FA00F0A4F80021AE2000F0F6F8CD
:101ED0000021084600F0F2F80021102000F0EEF892
:101EE0000021402000F0EAF80021B02000F0E6F8E0
:101EF0000021812000F0E2F80021FF2000F0DEF850
:101F00000021A12000F0DAF80021A62000F0D6F888
:101F10000021A82000F0D2F800213F2000F0CEF8E8
:101F20000021C82000F0CAF80021D32000F0C6F834
:101F30000021084600F0C2F80021D52000F0BEF8CC
:101F40000021802000F0BAF80021D92000F0B6F876
:101F50000021F12000F0B2F80021DA2000F0AEF804
:101F60000021122000F0AAF80021DB2000F0A6F8E2
:101F70000021302000F0A2F800218D2000F09EF812
:101F80000021142000F09AF80021AF2000F096F80C
:101F900010BD000008B50121082000F0EBFC4FF453
:101FA0008050ADF8000003208DF8020010208DF85D
:101FB000030069461548FEF7A7FF4FF48051134808
:101FC000FFF738F82020ADF8000003208DF802005C
:101FD00010208DF8030069460C48FEF795FF20217C
:101FE0000A48FFF727F84020ADF8000003208DF8DD
:101FF000020010208DF8030069460448FEF784FFB4
:1020000040210248FFF716F808BD0000000C01400F
:1020100010B520210848FFF70DF8642002F052F9AE
:1020200020210548FFF704F8642002F04BF9202135
:102030000148FEF7FFFF10BD000C0140F0B503465C
:102040001446E4B1CD1701EB5575ED1003EBC51542
:10205000194E755D0A46CE1701EB5676F610A1EBC8
:10206000C6070126BE40F6B235430846CE1701EB3F
:102070005676F61003EBC6160F4FBD551AE0CD1776
:1020800001EB5575ED1003EBC5150B4E755D0A465A
:10209000CE1701EB5676F610A1EBC6070126BE401F
:1020A000B5430846CE1701EB5676F61003EBC6167D
:1020B000014FBD55F0BD0000E603002070B5044699
:1020C0000D4625B140210B48FEF7B4FF03E0402147
:1020D0000848FEF7ADFF4FF480510648FEF7A8FF11
:1020E000E1B2054800F0C0FE4FF480510148FEF710
:1020F000A1FF70BD000C01400038004030B58BB02E
:1021000000200790089009900A9001252FA032A383
:1021100034A236A10090414801F0A8FA07A8002196
:1021200002910391CDE9041000912B0227A20191A5
:1021300029A12CA0FFF758F9002842D1089A91B2A2
:102140000798FEF7A7FEFA20FEF738FD0446002C9C
:1021500033D02046FFF7D4FD02282ED12046FFF7CA
:102160009FFC062823D2DFE800F003090E13181D98
:102170002BA12A4801F07AFA00251DE02EA127485C
:1021800001F074FA18E036A1244801F06FFA13E068
:102190003EA1224801F06AFA0EE046A11F4801F074
:1021A00065FA09E050A11D4801F060FA04E058A169
:1021B0001A4801F05BFA00BF00BF07A8FFF77CF8E0
:1021C00002E028460BB030BD00BFFBE761646D69DB
:1021D0006E37383135000000373831356373646449
:1021E0002E00000061646D696E0000004F6E654E48
:1021F00065745F4465764C696E6B0D0A50524F49A9
:10220000443A2025732C09415549463A2025732C20
:102210000944455649443A25730D0A0000440040DC
:10222000546970733A09E8BF9EE68EA5E68890E58A
:102230008A9F0D0A000000005741524E3A09E8BF3C
:102240009EE68EA5E5A4B1E8B4A5EFBC9AE58D8F16
:10225000E8AEAEE99499E8AFAF5C720A0000000006
:102260005741524E3A09E8BF9EE68EA5E5A4B1E873
:10227000B4A5EFBC9AE99D9EE6B395E79A84636C9A
:1022800069656E7469640D0A000000005741524E82
:102290003A09E8BF9EE68EA5E5A4B1E8B4A5EFBC77
:1022A0009AE69C8DE58AA1E599A8E5A4B1E8B4A5D4
:1022B0000D0A00005741524E3A09E8BF9EE68EA52E
:1022C000E5A4B1E8B4A5EFBC9AE794A8E688B7E521
:1022D000908DE68896E5AF86E7A081E99499E8AF0E
:1022E000AF5C720A000000005741524E3A09E8BF45
:1022F0009EE68EA5E5A4B1E8B4A5EFBC9AE99D9E43
:10230000E6B395E993BEE68EA55C720A0000000074
:102310004552523A09E8BF9EE68EA5E5A4B1E8B45D
:10232000A5EFBC9AE69CAAE79FA5E99499E8AFAF10
:102330005C720A0070B588B005460C460020049017
:1023400005900690079023462A4610A1174801F0F1
:102350008DF92046FDF72CFF064604A80121002236
:10236000CDE9001233462246CDE9021029460A2063
:10237000FFF78AF938B9059A91B20498FEF78AFDF9
:1023800004A8FEF799FF08B070BD00005075626C9C
:1023900069736820546F7069633A2025732C204D4F
:1023A00073673A2025730D0A0000000000440040C6
:1023B0002DE9F04F93B08246FEF768FF00200F90A2
:1023C0001090119012900E900D900FF2902BA7A0EC
:1023D0000C9000200B900A90002709900025002403
:1023E00005905046FFF78CFC0746F81E0D2871D269
:1023F000DFE800F0269DA6C0DC70E570F470707018
:1024000007000AAB0EAA0DA95046FFF703FB0546CD
:10241000ADB9BDF82800009098A1A148DDE90D23D1
:1024200001F024F90FAADDE90D01FEF797FF30B99D
:102430009CA19B4801F01AF90FA8FEF73DFFDEE0D2
:102440009E4809A90AAA0EABCDE9002102900BAA69
:102450000DA95046FFF734FB0546002D66D1BDF8A7
:1024600028000E99CDE90010BDF82C3094A18C48BD
:102470000D9A01F0FBF859460D98FDF7A0FE0028D3
:1024800029D10E9801F09CFE8046B8F1000F08D1CA
:1024900001F070FE024699A10390814801F0E6F830
:1024A00010E09BA1404601F06BFE064632469AA121
:1024B0007B4801F0DBF8706910B1FEF7DDFE01E04A
:1024C000FEF7D0FE404601F029FE4FF4FA7001F00D
:1024D000F9FE2BE090E0DDE90C10FDF770FE28BB63
:1024E0000E9801F06DFE8146B9F1000F08D101F0A0
:1024F00041FE024681A10390694801F0B7F815E05A
:102500008AA1484601F03CFE04908AA16448049ADE
:1025100001F0ACF8706910B101208B490870484691
:1025200001F0FCFD4FF4FA7001F0CCFE67E050467C
:10253000FFF7A6FB18B985A1594801F097F85EE0AE
:102540005046FFF7BBFBA0B988A1554801F08EF8B3
:102550000FA90A20FFF798F958B98AA1504801F04D
:1025600085F8109A91B20F98FEF794FC0FA8FEF729
:10257000A3FE44E0514801885046FFF7AEFBA0B9E6
:1025800086A1474801F072F80FA90A20FFF758F911
:1025900058B988A1424801F069F8109A91B20F9891
:1025A000FEF778FC0FA8FEF787FE28E05046FFF7FD
:1025B00076FB18B986A13A4801F058F81FE050465A
:1025C000FFF7D8FB20B988A1354801F04FF803E0A8
:1025D0008CA1334801F04AF811E0FFE75046FFF7BD
:1025E000E3FB20B98EA12E4801F040F803E093A14F
:1025F0002B4801F03BF802E04FF0FF3500BF00BF71
:10260000FEF7CEFA681C10B913B0BDE8F08F7D213B
:102610000E98FDF7C3FD0446A4B1681C90B1641C7C
:1026200006E014F8012B0598411C059106A90A54EF
:102630002078302802DB20783928F2DD06A8FDF763
:10264000EFFD05900F2F01D0032F05D10D9801F05C
:1026500093FE0E9801F090FE00BFD5E72F6D7974C0
:102660006F7069632F737562000000002F6D7974BD
:102670006F7069632F7461736B000000636D646930
:10268000643A2025732C207265713A2025732C2022
:102690007265715F6C656E3A2025640D0A0000005A
:1026A00000440040546970733A0953656E642043D6
:1026B0006D64526573700D0A000000003600002042
:1026C000746F7069633A2025732C20746F7069638E
:1026D0005F6C656E3A2025642C207061796C6F61A7
:1026E000643A2025732C207061796C6F61645F6C93
:1026F000656E3A2025640D0A000000004572726F75
:1027000072206265666F72653A205B25735D0A0010
:102710004C45445F535700006A736F6E5F76616C7F
:102720007565203D2025640D0A0000005441534B7F
:102730005F5357007461736B5F76616C7565203D04
:102740002025640D0A0000003400002054697073D5
:102750003A094D515454205075626C697368205386
:10276000656E64204F4B0D0A0000000054697073C1
:102770003A09526576205075626C697368526563D8
:102780000D0A0000546970733A0953656E64205055
:1027900075626C69736852656C0D0A0054697073D8
:1027A0003A09526576205075626C69736852656C9F
:1027B0000D0A0000546970733A0953656E64205025
:1027C00075626C697368436F6D700D0A00000000DC
:1027D000546970733A09526576205075626C69735A
:1027E00068436F6D700D0A00546970733A094D515A
:1027F000545420537562736372696265204F4B0DA8
:102800000A000000546970733A094D515454205322
:102810007562736372696265204572720D0A000009
:10282000546970733A094D51545420556E53756272
:10283000736372696265204F4B0D0A0054697073AF
:102840003A094D51545420556E5375627363726941
:102850006265204572720D0A0000000070B586B0F6
:1028600004460D4600260020029003900490059037
:1028700007E054F826200DA1124800F0F7FE701C66
:10288000C6B2AE42F5DB02A82B46224600210090DC
:102890001420FFF71DF838B9039A91B20298FEF799
:1028A000F9FA02A8FEF708FD06B070BD5375627311
:1028B000637269626520546F7069633A2025730DF5
:1028C0000A00000000440040704701468888B0F5C7
:1028D000807F01D1012070470020FCE701460022E3
:1028E00000BF04E00023881D8354501C82B2FF2ADD
:1028F000F8DD00200880488088800120704700B5FE
:1029000002460B461046FFF7E0FF012801D10020E8
:1029100000BD5188901D43545188481CC11700EBDD
:1029200011610912A0EB012151809088401C908018
:102930000120EDE729B1064AD2690243044BDA616E
:1029400004E0034AD2698243014BDA617047000018
:102950000010024029B1064A12690243044B1A6171
:1029600004E0034A12698243014B1A617047000078
:102970000010024029B1064A92690243044B9A6151
:1029800004E0034A92698243014B9A617047000058
:102990000010024029B1064AD2680243044BDA60B3
:1029A00004E0034AD2688243014BDA6070470000BA
:1029B0000010024030B500210022002400232D4DDC
:1029C0006D6805F00C0121B1042905D0082923D137
:1029D00005E0294D056022E0274D05601FE0254DEB
:1029E0006D6805F47012234D6D6805F4803402257E
:1029F00005EB92421CB9214D554305600BE01D4D7E
:102A00006D6805F400351DB11C4D5543056002E0AD
:102A1000194D5543056002E0174D056000BF00BF2A
:102A2000144D6D6805F0F0010909154D6B5C0568E2
:102A3000DD4045600F4D6D6805F4E061090A104DF9
:102A40006B5C4568DD4085600A4D6D6805F460513A
:102A5000C90A0B4D6B5C4568DD40C560054D6D686E
:102A600005F44041890B074D6B5CC568B5FBF3F578
:102A7000056130BD0010024000127A0000093D00DF
:102A8000140000202400002008B50220ADF800004A
:102A900001208DF8020004208DF8030069460248E9
:102AA000FEF732FA08BD0000000C014008B5022014
:102AB000ADF8000010208DF8030003208DF802000F
:102AC00069460248FEF720FA08BD0000000C0140EC
:102AD00008B501210820FFF74DFF0120ADF80000E7
:102AE00010208DF8030003208DF802006946054888
:102AF000FEF70AFA0220ADF8000069460148FEF729
:102B000003FA08BD000C014010B500200A49086016
:102B1000FFF7CCFF00200949C1F88401142001F01F
:102B2000F7FB012004490860142001F0F1FB0020AC
:102B30000249C1F8800110BD8081214200802142FC
:102B400010B500200A490860FFF7B0FF01200949CD
:102B5000C1F88401142001F0DBFB01200449086066
:102B6000142001F0D5FB00200249C1F8800110BDFE
:102B7000808121420080214270B505460024FFF784
:102B800083FF002619E0002011490860142001F09D
:102B9000BFFB01200F49C1F880014FF6FF7000EA2A
:102BA000440402210C48FEF73AFA08B1601C84B2D2
:102BB000142001F0ADFB701CC6B2082EE3DB15B982
:102BC000FFF7BEFF01E0FFF79FFF204670BD00004A
:102BD0008081214200802142000C014070B50446F2
:102BE000FFF764FF00201449086000251EE0E0099B
:102BF00020B101201049091D086003E000200E49A2
:102C0000091D08606006040E142001F081FB0120FC
:102C100009490860142001F07BFB00200749C1F836
:102C20008001142001F074FB681CC5B2082DDEDBA6
:102C3000142001F06DFB70BD808121420080214293
:102C400010B5FFF733FF0120094908600949C1F8B1
:102C50008001142001F05CFB00200549086014206D
:102C600001F056FB00200349C1F8800110BD0000AF
:102C7000848121420080214210B5FFF717FF002018
:102C8000084908600849C1F88401142001F040FB9C
:102C90000120044908600449C1F88401142001F0AE
:102CA00037FB10BD808121420080214210B50024F5
:102CB000FFF7EAFE0120104908600A2001F028FB16
:102CC00001200E49C1F880010A2001F021FB07E034
:102CD000601CC4B2FA2C03DDFFF7CEFF012010BD4B
:102CE00002210748FEF79BF90028F1D10249091F8C
:102CF000086000BFF3E70000848121420080214288
:102D0000000C014010B5FFF7E3FE0321202000F086
:102D100025F810BD70B5FFF793FFB120FFF75EFFF8
:102D2000FFF7C4FF0120FFF727FF0446240201201C
:102D3000FFF722FF04440120FFF71EFFC5B200BFCA
:102D400024020120FFF718FF044424020020FFF7AB
:102D500013FF0444FFF790FF204670BD70B5054691
:102D60000C46FFF76DFFB020FFF738FFFFF79EFF1F
:102D70002846FFF733FFFFF799FF2046FFF72EFFA6
:102D8000FFF794FFFFF778FF642001F09BFA70BD16
:102D900000B587B001218803FFF7CCFD0121082091
:102DA000FFF7E8FD4FF42040ADF8180003208DF840
:102DB0001A0018208DF81B0006A91448FEF7A4F885
:102DC0000020ADF804004FF48270ADF8060000203A
:102DD000ADF808000220ADF80A000120ADF80C00A3
:102DE0004002ADF80E000020ADF81000ADF8120062
:102DF0000720ADF8140001A9054800F017F80121DB
:102E0000034800F007F807B000BD0000000C0140C7
:102E10000038004021B1028842F04002028004E004
:102E200002884FF6BF731A400280704710B5002227
:102E3000028802F441520B884C8823438C88234338
:102E4000CC8823430C8923434C8923438C89234317
:102E5000CC8923431A430280838B4FF2FF742340B3
:102E600083830B8A038210BD024600BF108900F0E5
:102E700002000028FAD0918100BF108900F0010003
:102E80000028FAD09089C0B27047704700B587B06B
:102E90002C48FFF723FD01214804FFF74BFD0121DA
:102EA0000420FFF767FD284800F0A6FA0420ADF8DB
:102EB000180003208DF81A0018208DF81B0006A9B1
:102EC0002248FEF721F80820ADF8180048208DF8B8
:102ED0001B0006A91D48FEF717F84FF41650029084
:102EE0000C20ADF812000020ADF81000ADF80E0077
:102EF000ADF80C00ADF8140002A9134800F026FB51
:102F00004FF4A060FEF794FF26208DF80400012006
:102F10008DF8070003208DF805008DF8060001A844
:102F2000FEF74EFF012240F22551074800F0E9FA72
:102F30000121054800F054FA00200549087007B047
:102F400000BD000054000020004400400008014083
:102F50002D00002010B504462146054800F067FB0F
:102F600000BF8021024800F095FA0028F9D010BD7A
:102F70000044004070B50446002504E0605DFFF7A2
:102F8000E9FF681CC5B2605D0028F7D170BD000084
:102F900000B587B001218804FFF7CCFC0121042093
:102FA000FFF7E8FC01210820FFF7E4FC274800F0C8
:102FB00023FA4FF48060ADF8180003208DF81A0052
:102FC00018208DF81B0006A92148FDF79DFF4FF43E
:102FD0000060ADF8180048208DF81B0006A91C48B9
:102FE000FDF792FF4FF4165002900C20ADF812003E
:102FF0000020ADF81000ADF80E00ADF80C00ADF8F3
:10300000140002A9114800F0A1FA4FF4A060FEF7E5
:103010000FFF27208DF8040001208DF807008DF8A0
:1030200005008DF8060001A8FEF7CAFE012240F255
:103030002551064800F065FA0121044800F0D0F956
:103040000448FFF74BFC07B000BD000000480040FB
:10305000000C0140DA01002010B504462146054865
:1030600000F0E5FA00BF8021024800F013FA0028C2
:10307000F9D010BD0048004070B50446002504E0BA
:10308000605DFFF7E9FF681CC5B2605D0028F7D1FD
:1030900070BD000000B587B02D48FFF71FFC01216F
:1030A0008803FFF767FC01210420FFF763FC294830
:1030B00000F0A2F94FF40070ADF8180003208DF86D
:1030C0001A0018208DF81B0006A92348FDF71CFFE5
:1030D0004FF48060ADF8180048208DF81B0006A959
:1030E0001D48FDF711FF4FF4165002900C20ADF86B
:1030F00012000020ADF81000ADF80E00ADF80C0085
:10310000ADF8140002A9134800F020FA4FF4A060B3
:10311000FEF78EFE25208DF8040001208DF80700B3
:1031200003208DF805008DF8060001A8FEF748FE83
:10313000012240F22551074800F0E3F9012105483A
:1031400000F04EF900200549087007B000BD0000EE
:10315000E002002000380140000801403300002058
:1031600010B500F001F810BD0CB5002001900090E2
:103170003348006840F480303149086000BF30486F
:10318000006800F4003000900198401C0190009805
:1031900018B90198B0F5A06FF1D12948006800F482
:1031A000003010B10120009001E000200090009854
:1031B000012843D12348006840F0100021490860ED
:1031C0000846006820F0030008600846006840F0E8
:1031D000020008601A48406819494860084640687B
:1031E00048600846406840F480604860084640688F
:1031F00020F47C1048600846406840F4E8104860BD
:103200000846006840F08070086000BF0C48006805
:1032100000F000700028F9D00948406820F0030051
:10322000074948600846406840F00200486000BF17
:103230000348406800F00C000828F9D10CBD0000DC
:103240000010024000200240042808D14FF0E02185
:10325000096941F004014FF0E022116107E04FF0ED
:10326000E021096921F004014FF0E022116170476B
:103270007047000010B51348006840F00100114984
:10328000086008464068104908400E4948600846F2
:1032900000680E4908400B4908600846006820F4A1
:1032A000802008600846406820F4FE0048604FF423
:1032B0001F008860FFF754FF4FF00060044908606A
:1032C00010BD0000001002400000FFF8FFFFF6FEF6
:1032D00008ED00E010B540F225510C4800F0E7F889
:1032E000012811D1094800F09DF909490870012011
:1032F0000849087040F22551044800F062F804487B
:1033000001780548FFF7FBFA10BD000000380140C6
:103310003200002033000020E002002010B540F20F
:1033200025510C4800F0C3F8012811D1094800F0DC
:1033300079F90949087001200849087040F22551BF
:10334000044800F03EF8044801780548FFF7D7FA32
:1033500010BD0000004400402C0000202D00002083
:103360005400002010B540F225510E4800F09FF89F
:10337000B0B10D480088802802D300200A49088097
:103380000848001D0088C1B2074802880088401C18
:10339000054B1880054881542021024800F008F8A8
:1033A00010BD0000004800402E0000205A010020FF
:1033B00001F40072B2F5007F00D100BFCA43028061
:1033C000704710B50022002340F66A14A14200D1D4
:1033D00000BF0A1201249440A3B2DC43048010BD54
:1033E00021B1828942F40052828104E082894DF643
:1033F000FF731A408281704710B50446204884420A
:1034000009D101218803FFF7C5FA00214FF480405C
:10341000FFF7C0FA32E01B48844209D10121480479
:10342000FFF798FA00214FF40030FFF793FA25E0F8
:103430001548844209D101218804FFF78BFA002145
:103440004FF48020FFF786FA18E01048844209D133
:103450000121C804FFF77EFA00214FF40020FFF796
:1034600079FA0BE00A48844208D101210805FFF7E8
:1034700071FA00214FF48010FFF76CFA10BD0000C4
:10348000003801400044004000480040004C00402B
:103490000050004002460020B1F5007F00D100BF7F
:1034A00013880B400BB1012000E00020704770B57D
:1034B0000246002400230025002040F66A16B1428F
:1034C00000D100BFC1F3421501F01F03012606FA27
:1034D00003F3012D02D19689334006E0022D02D17B
:1034E000168A334001E0968A33400C12012606FA10
:1034F00004F41688344013B10CB1012000E0002020
:1035000070BDF0B50346002400260025002040F6DB
:103510006A17B94200D100BF1846C1F3421401F046
:103520001F06012707FA06F5012C01D10C3004E033
:10353000022C01D1103000E014301AB107682F437B
:10354000076002E00768AF430760F0BD2DE9F04770
:1035500086B005460E460024A24600BFA1460027BD
:10356000B08900B100BF2F462C8A4CF6FF70044092
:10357000F08804432C82AC894EF6F3100440B088E6
:1035800031890843718908430443AC81AC8A4FF602
:10359000FF400440B0890443AC8201A8FFF70AFA57
:1035A0001F48874202D1DDF810A001E0DDF80CA031
:1035B000A88900F4004040B10AEBCA0000EB0A10F1
:1035C00031684900B0FBF1F807E00AEBCA0000EBF4
:1035D0000A1031688900B0FBF1F86420B8FBF0F004
:1035E00004012009642101FB1089A88900F400402E
:1035F00040B1322000EBC900B0FBF1F000F0070051
:10360000044308E0322000EB09106421B0FBF1F024
:1036100000F00F0004432C8106B0BDE8F0870000E5
:103620000038014001468888C0F308007047C1F3A4
:1036300008028280704700BFFEE7000070B50446B4
:103640000D4600260DE014F8011B0748FFF7EFFFB9
:1036500000BF80210448FFF71DFF0028F9D0701C2F
:1036600086B2AE42EFDB70BD004800400FB430B50B
:10367000CBB0054601AC50A800904FF4947101A85E
:10368000009B4F9A00F03AF8002000900BE014F8ED
:10369000011B2846FFF7CBFF00BF80212846FFF71C
:1036A000F9FE0028F9D020780028F0D14BB030BCCA
:1036B0005DF814FB0FB4054B10B503A9044A02983A
:1036C00000F084F910BC5DF814FB00005D430008B5
:1036D000440000200FB4084B10B504A902AA0398B7
:1036E00000F074F9044602A9002000F011FD204604
:1036F00010BC5DF814FB0000114100087CB5491EA8
:103700001C461546CDE90001044B6A462146284671
:1037100000F05CF9009A002111707CBDFB400008AC
:10372000490050EAC12018BF04204A0D18BF40F0DC
:10373000010040F2FF72B2EB515F08BF40F002009F
:10374000012808BF0520704700487047500000203E
:103750002DE9F0414F1E00EBC7010446D1E90001FD
:1037600015461E4637F006020DD02A463346FCF7B2
:103770000BFE7F1E04EBC703D3E90023FCF75DFDBE
:1037800037F00602F1D1022F25D0042F13D0062FD7
:1037900018BFBDE8F0812A463346FCF7F5FDD4E9B1
:1037A0000A23FCF74AFD2A463346FCF7EDFDD4E92F
:1037B0000823FCF742FD2A463346FCF7E5FDD4E931
:1037C0000623FCF73AFD2A463346FCF7DDFDD4E933
:1037D0000423FCF732FD2A463346FCF7D5FDD4E935
:1037E0000223FCF72AFD2A463346FCF7CDFDD4E937
:1037F0000023BDE8F041FCF720BD00000022134685
:1038000010460149FCF787BF0000F03FFCF715BDEB
:103810000022134610461146FCF77DBF40F20132EC
:1038200000204FF0E041FCF7E5BF0000024A002015
:103830001107FCF7DFBF000001FDFFFF02E008C831
:10384000121F08C1002AFAD170477047002001E01A
:1038500001C1121F002AFBD1704700000149086016
:1038600070470000500000202DE9FF5FDDE90220D5
:10387000010DDDF838B0024318D044F61050A1F223
:10388000FF3141430D140F98012820D0A5EB0B0008
:10389000401C5FEA000A4FF00004474EDFF81C911D
:1038A000A046504616D5CAF1000728E00F9801241B
:1038B00043A2012808D0002100980F9BC0E90021F5
:1038C000C0E90243BDE8FF9F6FEA0B01F4E7CBF1CB
:1038D0000000DEE7074612E0F80707D0224633462D
:1038E00040464946FCF750FD80468946224633460D
:1038F00010461946FCF748FD04460E467F10002F7F
:10390000EAD1DDE90201BAF1000F42464B4602DA84
:10391000FCF73AFD01E0FCF7FEFE04460E460022ED
:10392000284BFCF7D3FD03D84FF0FF30014607E0EA
:103930000022254B20463146FCF77FFCFCF771FF47
:10394000102409E0002C0ADB0A220023FCF7ECFD1E
:10395000019B30321A55641E50EA0102F2D1641CF8
:10396000019AC4F1110314440F9A012A03D00122D1
:1039700008430DD10AE0084304D000204FF0110B9A
:103980000F9080E7A3EB0B056D1E0DE05B4504DD9A
:103990004FF0000205F1010504E003DA4FF00002E8
:1039A000A5F10105002AECD000980F99C0E9023179
:1039B000C0E9004586E70000000024400000F03F19
:1039C000300000000000F0430000E03F2DE9FF4F11
:1039D00095B09B468946064600250FE2252877D1FB
:1039E00000242746F84A0121059400E0044316F814
:1039F000013F203B01FA03F01042F7D130782A282A
:103A000011D06FF02F033078A0F13002092A16D8B8
:103A1000059A44F0020402EB820203EB42021044D6
:103A2000761C0590EFE759F8042B0592002A03DA7B
:103A3000504244F40054059044F00204761C30785F
:103A40002E2816D116F8010F44F004042A280DD0B0
:103A50006FF02F023078A0F13003092B09D807EB63
:103A6000870302EB4303C718761CF3E759F8047B7E
:103A7000761C30786C280FD006DC4C2817D06828CC
:103A80000DD06A2814D104E0742810D07A280FD100
:103A90000DE044F400140AE044F4801401E044F41E
:103AA00040147278824202D104F58014761C761C90
:103AB000307866280BD013DC582877D009DC002832
:103AC00075D04528F6D04628F4D047281AD19DE174
:103AD00018E0632835D0642879D0652812D195E1A3
:103AE000702873D008DC6728F1D069286FD06E2861
:103AF0000DD06F2806D1B5E073282CD0752875D06D
:103B0000782874D05A46179990476D1C75E1C4F314
:103B10000250022809D003280DD0D9F8001004283B
:103B20000DD00D6009F1040967E1D9F80010EA171A
:103B3000C1E90052F6E7D9F800100D80F2E70D70E8
:103B4000F0E719F8041B8DF8001000208DF8010033
:103B5000EA46012003E059F804AB4FF0FF3061075B
:103B60004FF0000102D40DE008F101018846B9428E
:103B70000FDA8045F8DB1AF808100029F4D108E0C4
:103B800008F1010188468142FADB1AF80810002981
:103B9000F6D105985B46A0EB080721463846179AF0
:103BA00000F094FA284400EB080507E04DE029E115
:103BB0000DE01AF8010B5A4617999047B8F1010821
:103BC000F7D25B4621463846179A13E142E00A22B3
:103BD0000092C4F302524FF0000A022A08D059F8AA
:103BE00004CB032A4FEAEC710AD00DE029E02AE069
:103BF00009F1070121F00702F2E802C1914609E04C
:103C00000FFA8CFC4FEAEC71042A03D14FFA8CFCBA
:103C10004FEAEC71002907DA0A460021DCF1000CBA
:103C200061EB02012D2202E0220504D52B228DF842
:103C30000420012203E0E20701D02022F7E79046AA
:103C400059E00A2102E010220DE010214FF0000A95
:103C500000910BE010224FF0000A44F00404082702
:103C6000009203E008224FF0000A0092C4F30252CF
:103C7000022A05D059F804CB0021032A08D009E014
:103C800009F1070121F00702F2E802C1914605E0BF
:103C90001FFA8CFC042A01D10CF0FF0C4FF0000835
:103CA000220728D5702806D0009B83F0100353EA22
:103CB0000A0305D00EE040228DF80420012208E01E
:103CC0005CEA010206D030228DF804208DF8050050
:103CD00002229046009B83F0080353EA0A030AD1AC
:103CE0005CEA010201D1620705D530228DF804207B
:103CF0004FF001087F1E582804D034A003900EA86E
:103D000002900DE036A0F9E753466046009AFCF7B2
:103D10000BFC84460398825C0298401E029002705D
:103D20005CEA0100F0D1029806A9081A00F1200A05
:103D3000600702D524F4803400E00127574502DDF6
:103D4000A7EB0A0000E0002000EB0A0100900598B4
:103D50004144401A0590E00306D45B462146179A79
:103D6000059800F0B3F90544002706E001A85A467B
:103D7000C05D179990476D1C7F1C4745F6DBE0033B
:103D80000CD55B462146179A059800F09FF905442B
:103D900004E030205A46179990476D1C0099481E40
:103DA00000900029F5DC08E0029802995A46007854
:103DB000491C0291179990476D1CBAF10001AAF1B4
:103DC000010AF1DC65E100000928010030313233DD
:103DD0003435363738396162636465660000000047
:103DE0003031323334353637383941424344454631
:103DF0000000000000F058F90544761C30780028D7
:103E00007FF4ECAD19B02846BDE8F08F620700D40E
:103E1000062709F1070222F0070CFCE80223E1461D
:103E200003F000485FEA080C02D00FF2702C0DE09E
:103E30005FEA045C02D50FF2682C07E05FEAC47CFD
:103E400002D00FF2602C01E0AFF2700C4FF0FF389F
:103E500023F00043CDF850C065280CD006DC45287F
:103E600009D046281DD047283DD13DE0662818D00E
:103E700067287ED138E00021112F01DB112000E0FE
:103E8000781CCDE9000106A90EA8FFF7EDFCDDE9DD
:103E90000F010E9A03910021009207F1010A04918B
:103EA0004DE04FF000400097CDE9011006A90EA8A3
:103EB000FFF7DAFCDDE90F0203920E9B1199002255
:103EC000DDF80CA00093049211B9791C00EB010AF3
:103ED000B7EB0A0004D4C0F1FF3007F1010A0490E7
:103EE000AAEB0700019044E0012F00DA012700212E
:103EF000112F01DD112000E03846CDE9000106A9AF
:103F00000EA8FFF7B1FCDDE90F010E9A0391002125
:103F100004910092BA4621070CD40399514500DA66
:103F20008A46BAF1010F05DD009AAAF10101515C40
:103F3000302908D0B84202DA10F1040F06DA012164
:103F4000CDE9011015E0AAF10101E9E7002805DC3F
:103F5000049901440491AAEB000102E0411C51457F
:103F600000DD8A460499401A401C01904FF0004041
:103F70000290200704D40198504501DBCDF804805D
:103F800000208DF84F0002980DF14F07B0F1004F5F
:103F900025D02B200E9002984FF0020800280CDA52
:103FA000404202902D200E9007E00A210298FCF773
:103FB000A5FA3031029007F8011DB8F10001A8F10F
:103FC0000108F2DC02980028EFD1791E0E980870E3
:103FD000307800F0200040F0450007F8020D12A8EC
:103FE000C01B00F107081498007800B1012000EB15
:103FF0000A01019801EBE07105984144401A401E06
:104000000590E00306D45B462146179A059800F018
:104010005DF805441498007818B15A4617999047EE
:104020006D1CE00324D55B462146179A059800F0E5
:104030004DF805441CE00498002807DBDDE9030186
:10404000884203DD0098405C179901E01799302001
:104050005A469047049805F10105401C04900198C8
:10406000401E019004D12E205A46179990476D1C8E
:10407000BAF10001AAF1010ADDDC05E017F8010B35
:104080005A46179990476D1CB8F10001A8F1010834
:10409000F4DC5B462146179A0598ABE62D0000003C
:1040A0002B000000200000002DE9F041044600250F
:1040B0001E461746880404D405E039462020B04740
:1040C0006D1C641EF9D52846BDE8F0812DE9F0414C
:1040D000044600251E469046C80301D5302700E05F
:1040E0002027880404D505E041463846B0476D1CBA
:1040F000641EF9D52846BDE8F0814A68002A06D03A
:104100000A68531C0B6010704868401E4860704776
:104110000A68531C0B6010707047000070B50446AD
:1041200022E02568A08900F4807020B9A06810B151
:10413000A068FFF7F3FFA08900F4807028B9206918
:1041400018B10B49206909688847A08900F40070FC
:1041500028B9206A18B10649206A096888472046AC
:104160000349096888472C46002CDAD170BD00004D
:10417000400000200148006870470000380000201F
:1041800070B505460E46AC6800E024682CB1314697
:10419000206A00F04FF80028F7D1204670BD0000DB
:1041A00010B5282005490968884704461CB1282114
:1041B0002046FBF7D6FF204610BD00003C00002043
:1041C00010B5044600221146204600F001F810BD4B
:1041D0002DE9F04780460D4616460024FFF7E0FF24
:1041E00007460020124908600FB9BDE8F087404635
:1041F00001F0F6FA81464946384600F0B7FD04461C
:1042000024B93846FFF78AFF0020EEE766B1204662
:1042100001F0E6FA0446207830B13846FFF77EFF19
:10422000034804600020E0E705B12C603846DCE775
:104230003800002070B504460D462CB9AC4201D0C0
:10424000012070BD0020FCE70DB90120F9E705E071
:10425000207808B90020F4E7641C6D1C2078FBF777
:1042600061FF06462878FBF75DFF8642F0D0207894
:10427000FBF758FF06462878FBF754FF301AE0E7B3
:1042800010B56FF00400FEF7DFFF0A4800680A4926
:10429000B0FBF1F0094908700846007800EB4001D6
:1042A000C1EBC0104FF6FF7101EAC000044908805D
:1042B00010BD00000000002000127A00280000203D
:1042C0002A0000200146114A12884A434FF0E02399
:1042D0005A6100229A611A46126942F001021A617B
:1042E00000BF4FF0E022106900F001021AB100F4A3
:1042F0008032002AF5D04FF0E022126922F001024C
:104300004FF0E0231A6100229A6170472A000020D2
:104310000146114A12784A434FF0E0235A610022C5
:104320009A611A46126942F001021A6100BF4FF009
:10433000E022106900F001021AB100F48032002A74
:10434000F5D04FF0E022126922F001024FF0E02395
:104350001A6100229A6170472800002000BF054AB8
:10436000128802F04002002AF9D0C2B2014B1B1D94
:104370001A8070470044004010B5002821D0114B2E
:104380000022001F196803E0814203D80A464968E9
:104390000029F9D152B11368841A9C4204D10068F3
:1043A00018441060104602E0506000E0186039B117
:1043B00002680B1A934203D10B681A4402604968E1
:1043C000416010BD48000020C8B0FEF753FFFFF762
:1043D00057FFFCF75BFFFCF731FBFEF75BFEFEF7D8
:1043E00055FDFEF7D5FDFEF78DFCFDF763FD77A0CB
:1043F000FEF7C0FD4FF4FA60FFF764FF01201023C1
:1044000073A2282100901820FCF7F3FE4FF4FA6005
:10441000FFF758FF0020FDF715FD6F4903C94791CD
:10442000469000260027FCF727FF4FF47A70FFF72D
:1044300049FFFCF717FF4FF47A70FFF743FF08219D
:104440002020FEF78BFCFEF765FC0446250C1FFAC6
:1044500084F862A16548FFF709F94FF4FA70FFF795
:1044600031FFFCF7F3FB03E04FF4FA70FFF72AFF8C
:10447000FDF744FE0028F7D1022146A8FEF7EEF929
:1044800010E008212020FEF769FCFEF743FC0446FB
:10449000250C1FFA84F856A0FEF76CFD4FF4FA7055
:1044A000FFF710FFB5F5C87F02D1B8F1000FE8D0D3
:1044B0008BE008212020FEF751FCFEF72BFC044680
:1044C000250C00BF4FF4FA70FFF7FCFE02AB03AA05
:1044D00004A905A8FCF715FB0120082348A20D211B
:1044E00000902020FCF785FE012008210223CDE961
:1044F00000109DF814200D214620FCF725FE012018
:10450000082341A2162100902020FCF772FE012012
:1045100008210223CDE900109DF810201621462025
:10452000FCF712FE0120082339A21F210090202051
:10453000FCF75FFE0120082104232A46CDE9001084
:104540001F214020FCF700FE3348007801280BD1E2
:104550000020314908700120082330A22821009052
:104560002020FCF746FE07E0012008232FA2282187
:1045700000902020FCF73DFE394630A0FFF79AF866
:10458000781C80B207460A2813DB31A11748FFF7D1
:104590006DF800959DF810309DF8142030A106A804
:1045A000FFF798F806A936A0FDF7C4FE0027FCF730
:1045B000F7FA1E20FCF702FB064616B13046FDF75F
:1045C000F7FE4CF25030FFF77DFE72E76F6B000094
:1045D0004F70656E0000000018680008454D515886
:1045E0005F496E6974206F6B0D0A00000044004043
:1045F000646574656374696E672E2E2E0D0A000063
:1046000054656D703A00000048756D3A0000000076
:10461000436F323A00000000340000206275747469
:104620006F6E206973206F70656E00006275747420
:104630006F6E206973206661696C000074696D6536
:10464000436F756E743D202025640D0A0000000044
:10465000454D51585F5075626C6973680D0A0000D2
:104660007B2254656D70223A25642C2248756D2298
:104670003A25642C22436F32223A25647D000000E3
:104680002F6D79746573742F70756200F0B50B30FF
:10469000154D20F007010024144A0FE003688B42F7
:1046A0000BD38B4205D95E1A43184768C3E90067EC
:1046B00000E04368136002C004E0021D1068002897
:1046C000ECD12046002802D1286808B10020F0BDB6
:1046D000064A07481060074A121A22F00702C0E98A
:1046E000002401202860D7E74C000020480000206B
:1046F000EC070020E809002010B50246012000E088
:1047000050430B00A1F10104E1B2F9D110BD00004A
:104710002DE9F04705460C4620785B2804D0264852
:1047200004600020BDE8F0870520E860601C01F00F
:1047300057F8044620785D2801D1601CF2E7FFF7A6
:104740002FFD0646A860A86808B90020EAE72046C1
:1047500001F046F880464146304600F007FB074628
:1047600001F03EF804460CB90020DBE717E0FFF744
:1047700017FD070000D1D5E737607E603E46601C1C
:1047800001F02EF881464946304600F0EFFA8046A7
:1047900001F026F804460CB90020C3E700BF2078DA
:1047A0002C28E4D020785D2801D1601CBAE70248AB
:1047B00004600020B6E70000380000200146002217
:1047C0000878302806DB0878392803DC0878303888
:1047D000024415E00878412806DB0878462803DC07
:1047E0000878373802440BE00878612806DB08783F
:1047F000662803DC08785738024401E0002070473F
:104800001201491C0878302806DB0878392803DCB7
:1048100008783038024415E00878412806DB08782B
:10482000462803DC0878373802440BE00878612812
:1048300006DB0878662803DC08785738024401E074
:104840000020DCE71201491C0878302806DB0878D4
:10485000392803DC08783038024415E0087841280C
:1048600006DB0878462803DC0878373802440BE07A
:104870000878612806DB0878662803DC0878573852
:10488000024401E00020BAE71201491C08783028F0
:1048900006DB0878392803DC08783038024415E054
:1048A0000878412806DB0878462803DC0878373882
:1048B00002440BE00878612806DB0878662803DCF0
:1048C00008785738024401E0002098E7104696E740
:1048D0002DE9F04F8BB083468A46002004460546FA
:1048E0000026674F002188468946099001200890DC
:1048F0009AF800002D2802D1624F0AF1010A9AF8B5
:104900000000302801D10AF1010A9AF8000031288C
:1049100022DB9AF8000039281EDC00BF1AF8011BC0
:10492000A1F13000FBF7A2FD0022574BCDE90601B3
:1049300020462946FBF728FDCDE90401DDE90623E1
:10494000FBF77BFC04460D469AF80000302803DB99
:104950009AF800003928E1DD9AF800002E2830D1BD
:104960009AF8010030282CDB9AF80100392828DC5D
:104970000AF1010A00BF1AF8011BA1F13000FBF790
:1049800075FD0022404BCDE9060120462946FBF784
:10499000FBFCCDE90401DDE90623FBF74EFC0446F0
:1049A0000D460022364B40464946FBF7E7FC804661
:1049B00089469AF80000302803DB9AF8000039286D
:1049C000D9DD9AF80000652803D09AF80000452840
:1049D00023D10AF1010A9AF800002B2802D10AF12A
:1049E000010A08E09AF800002D2804D14FF0FF30AA
:1049F00008900AF1010A08E01AF8010B3038099909
:104A000001EB810100EB410009909AF80000302889
:104A100003DB9AF800003928EEDDDDE9082101FB0F
:104A200002F0FBF723FD42464B46CDE90001FBF7C0
:104A300004FC02460B46CDE902010020124900F0B9
:104A4000F3F922462B46CDE9060130463946FBF7FD
:104A50009BFCCDE90401DDE90623FBF795FC044648
:104A60000D46CBE9064520462946FBF710FDCBF85D
:104A700014000320CBF80C0050460BB0BDE8F08FBB
:104A80000000F03F0000F0BF000024402DE9F04797
:104A900006460C4620787B2804D04048046000205D
:104AA000BDE8F0870620F060601C00F099FE044627
:104AB00020787D2801D1601CF2E7FFF771FB0546E5
:104AC000B060B06808B90020EAE7204600F088FE30
:104AD00080464146284600F063F8074600F080FE15
:104AE00004460CB90020DBE7286928620020286111
:104AF00020783A2803D0294804600020D0E7601CC1
:104B000000F06EFE80464146284600F02FF9074629
:104B100000F066FE04460CB90020C1E731E0FFF763
:104B20003FFB070000D1BBE72F607D603D46601C66
:104B300000F056FE81464946284600F031F880468E
:104B400000F04EFE04460CB90020A9E7286928624F
:104B50000020286120783A2803D010480460002003
:104B60009EE7601C00F03CFE81464946284600F066
:104B7000FDF8804600F034FE04460CB900208FE7B3
:104B800000BF20782C28CAD020787D2801D1601C55
:104B900086E702480460002082E700003800002019
:104BA0002DE9F05F8346884608F10104002798F854
:104BB0000000222805D06A48C0F800800020BDE827
:104BC000F09F04E014F8011B5C2900D1641C2078DC
:104BD000222804D0207810B1781C0700F2D1781C6C
:104BE0006049096888478146B9F1000F01D100206A
:104BF000E5E708F101044D469EE020785C2804D0EA
:104C000014F8010B05F8010B96E0641C207872285B
:104C100018D006DC622809D066280BD06E287DD11A
:104C20000CE0742812D07528F9D113E0082005F89B
:104C3000010B7FE00C2005F8010B7BE00A2005F852
:104C4000010B77E00D2005F8010B73E0092005F852
:104C5000010B6FE0601CFFF7B1FD0646241DB6F5A1
:104C60005C4F02D3B6F5604F00D306B962E0B6F5EB
:104C7000584F1CD3B6F55C4F19D260785C2802D12E
:104C8000A078752800D055E0E01CFFF797FD82461C
:104C9000A41DBAF55C4F02D3BAF5604F00D349E0CA
:104CA000C6F30901504661F39F2000F580360427C2
:104CB000802E01D2012708E0B6F5006F01D202274D
:104CC00003E0B6F5803F00D203273D44012F20D0FA
:104CD000022F15D0032F0AD0042F24D106F0BF00D5
:104CE00040F08001681E05460170B60900BF06F05D
:104CF000BF0040F08001681E05460170B60900BF84
:104D000006F0BF0040F08001681E05460170B6093C
:104D100000BF1548C05D3043C1B200E006E0681E28
:104D20000546017000BF00BF3D4403E0207805F850
:104D3000010B00BF00BF641C2078222803D020781C
:104D400000287FF45AAF002028702078222800D154
:104D5000641CCBF810900420CBF80C0020462EE702
:104D6000380000203C0000203E58000870B5054681
:104D70000C460CB9002070BD042224A12046FBF78C
:104D800040FA18B90220E860201DF4E7052221A1AD
:104D90002046FBF736FA18B90020E860601DEAE704
:104DA00004221EA12046FBF72CFA20B90120E8605E
:104DB0006861201DDFE72078222804D1214628469B
:104DC000FFF7EEFED7E720782D2805D02078302891
:104DD00007DB2078392804DC21462846FFF778FDD8
:104DE000C9E720785B2804D121462846FFF790FCCC
:104DF000C1E720787B2804D121462846FFF746FEEC
:104E0000B9E7084804600020B5E700006E756C6CD7
:104E10000000000066616C736500000074727565C7
:104E200000000000380000202DE9F04D16460F4626
:104E300094B01C4621F0004123F00042002814BF2A
:104E40004FF0010C4FF0000C0CEB470CFE4B0CEB41
:104E500003054FEA630C65452BD3350018BF0125C8
:104E600005EB44051D44F94B9D4222D3F84B52EA11
:104E7000060C02D09F4205D148B914B00020194653
:104E8000BDE8F08D002808BF4FF0000C01D04FF0B6
:104E9000010C0CEB470313F5001F0AD8002E14BFBA
:104EA0004FF0010C4FF0000C0CEB440313F5001F06
:104EB00007D914B0324623463946BDE8F04DFEF717
:104EC000A5BCDFF890834FF0000A002FB8BF424521
:104ED00023DAE14B9A42A8BF4FF0020A1DDADC4BFD
:104EE00093421ADCDD4B03EB2253142B08DDC3F194
:104EF000340C26FA0CF303FA0CFCB4450DD108E08F
:104F00005EB9C3F1140C22FA0CF303FA0CFC9445BD
:104F100003D103F00103C3F1020A51EA00031BD1DC
:104F2000002C19DA002F18BFBAF1020F02D0BAF123
:104F3000010F07D00220FEF791FC14B0BDE8F04D40
:104F4000FEF75CBC0220FEF789FCFEF757FC14B0AC
:104F500081F00041BDE8F08D330070D1424525D18C
:104F600007F1804212F5801201BF00280020B849E5
:104F700014B008BFBDE8F08DB548884207DC002CAE
:104F8000A1BF1846214614B0BDE8F08D07E0002C03
:104F9000BFBF184684F0004114B0BDE8F08DB049A1
:104FA0007944D1E9000114B0BDE8F08DDFF8A0C26A
:104FB00062452AD1002C24DA39B1414517D10028A5
:104FC00004BF002002461CD106E040B10220FEF7DB
:104FD00045FCFEF723FC0A46394600F0D7BA9D4A45
:104FE000394614B0002062F31E01BDE8F08D08DAE6
:104FF00014B03B46BDE8F04D024600206146FBF789
:105000008ABB14B03946BDE8F08D414517DAB4F1DA
:10501000804F0CD0A4F10053B3F1FF530FD13B1ECE
:105020000DDB14B01946BDE8F04D00F0E2BB3B4685
:1050300014B00246BDE8F04D1946FBF7A5B90500CE
:1050400027F000433AD1E1B1414537D1002F06DDC9
:10505000002CA1BF0020414614B0BDE8F08D002F08
:1050600001DD002C1FDB002F16DA002C14DBBAF157
:10507000010F4FF0000014BF76497A4914B0BDE823
:10508000F08DBAF1020F18BF002F0CD0BAF1010F4A
:1050900009D1002F07DA0BE0002FB8BF002C0DDA82
:1050A000BAF1010F04D0002014B00146BDE8F08D24
:1050B00014B000204FF00041BDE8F08D4FF0010822
:1050C00008EBE77CCDF814C05CEA0A0C0DD0DFF8E1
:1050D00098C162457EDDDFF894C1654B624512DD03
:1050E0008B420ADB002C18DB23E00120FEF7B6FB25
:1050F00014B0BDE8F04DFEF78BBB554A8A4202DC86
:10510000002C0ADC15E0994202DA002C11DA04E0E6
:105110004F4B994219DD002C0BDD0220FEF79EFB60
:10512000FEF77CFB4B4A14B061F31E021146BDE84A
:10513000F08D0220FEF792FBFEF778FB444A14B094
:1051400061F31E021146BDE8F08D00223946FBF7DF
:1051500015F907460D466FF00102FBF74BFB4FF0C8
:105160005532444BFBF70DF93A462B46FBF70CF949
:105170000022414BFBF705F980468B463A462B4609
:1051800010461946FBF700F942465B46FBF7FCF870
:1051900088460E904FF0C042384B38462946FBF700
:1051A000F3F883460091364A344B41460E98FBF79C
:1051B000EBF880460191334A334B38462946FBF7DA
:1051C000E3F84246019BFBF7D9F80D4602460B4631
:1051D0000C9000E011E058460099FBF72EF80027EC
:1051E00088465A463846009BFBF7C8F82B460C9A6F
:1051F000FBF7C7F8024600F079B90020B1F5801F2F
:1052000007DA352228461946FBF7F4FA05466FF00F
:10521000340000EB2150A0F2FF300190C1F31300E5
:1052200040F07F6141F04051029118498842D8BF57
:105230004FF0000B35DD16498142C8BF4FF0010B1E
:105240002FDC4FF0000B25E0FFFF1F00FFFF0F00DA
:105250000000F03F0000F07F0000404301FCFFFF32
:10526000041900000000F0FF0000E0410000F043DE
:10527000FFFFEF3F5555D53F0000E03F4715F73F93
:10528000FE822B6544DF5DF80BAE543E8E98030022
:105290007AB60B000198401C01900298A0F580108E
:1052A0000290FF480299784400EBCB000991D0E9C5
:1052B000002328460B931292FBF760F800910A90A6
:1052C00028460B9B129A0999FAF7B7FF02460B463C
:1052D0000020F449FBF71FFACDE90C010B4602460A
:1052E00000990A98FBF750F80690EF488846002787
:1052F00078440299006810904FF0005040EA610035
:1053000000EB8B4000F5002102910B9B129A109844
:10531000FBF734F82A46099BFBF733F83A46434635
:10532000FBF732F80891129038464146029B109ADA
:10533000FBF72AF8009B0A9AFBF723F8089B129ABE
:10534000FBF71CF8DDE90C23FBF71EF80B91069A1E
:105350001290434610461946FBF716F805460246DA
:10536000D2480B460A9106217844FEF7F1F90A9BD0
:105370002A460891029010461946FBF705F8089B4B
:10538000029AFBF701F8054609914346384619464B
:10539000069AFAF752FF0B9B129AFAF7F5FF2A4684
:1053A000099BFAF74AFFCDE908013A464346104601
:1053B0001946FAF7E9FF0A910022BD4B0090FAF76F
:1053C0003CFFDDE90823FAF738FF0D463A46B84BB3
:1053D0003846FAF7D3FF0A9B009AFAF7CFFFDDE9C8
:1053E0000823FAF7CEFFCDE908013A462B461046CE
:1053F0004146FAF7C9FF00910A90DDE908014346EA
:10540000069AFAF7C1FF069088462B463A460B9952
:105410001298FAF7B9FF4346069AFAF70EFF80464C
:105420000B4602460D9100990A98FAF706FF0020F4
:105430000F460546009B0A9AFAF7A0FF42460D9BCD
:10544000FAF79FFF88460E904FF06042994B28462E
:105450003946FAF799FF02910090974A954B4146D9
:105460000E98FAF791FF80460391944A944B284690
:105470003946FAF789FF4246039BFAF7DEFE914A66
:105480007A4402EBCB03D3E90023FAF7D6FE0546B4
:1054900007910198FAF7EAFF0C9003912A46079BBF
:1054A00002990098FAF7C9FE874A7A4402EBCB03C7
:1054B000D3E9002393460193FAF7BFFE039B0C9AAE
:1054C000FAF7BBFE002788463846039B0C9AFAF78A
:1054D00055FF5A46019BFAF751FF029B009AFAF7D3
:1054E0004DFF2A46079BFAF74CFF02460020069024
:1054F00005986C4DAAF10103184301D1734D069034
:1055000000200B46049030462146FAF73DFF8246C4
:105510008B46234630461946049AFAF72FFF3A463F
:105520004346FAF731FF52465B46FAF786FE0646D7
:105530008A463A46434621460498FAF725FF044630
:105540000F4632465346FAF778FE614A8B4691423F
:1055500021DBABEB020353EA000210D122463B46AB
:10556000FAF70CFF804603915A4A5B4B304651468E
:10557000FAF763FE4246039BFAF7A8FF27D2022000
:10558000FEF76CF9FEF74AF90A46294614B062F3B1
:105590001E01BDE8F08D514B2BF000429A4216D30C
:1055A0004F4A0BEB020353EA000208D122463B4666
:1055B000FAF7E4FE32465346FAF788FF07D802208E
:1055C000FEF74CF9FEF732F90A462946DEE72BF0E2
:1055D00000404449444A01EB20514FF00008824208
:1055E00023DA481C4FF4801121FA00F058443F4A56
:1055F000C0F30A517A443E4BA1F2FF31CB4020EA7E
:105600000303C0F3130040F4801CC1F114001268BE
:105610002CFA00F8BBF1000FB8BFC8F10008204613
:105620003946FAF7ABFE04460F4622463B46304663
:105630005146FAF702FE4FF0000B5A462D4B5846E2
:105640000391FAF7A1FE00910A902B4A2B4B584682
:105650000399FAF799FE0491029022463B46584678
:105660000399FAF78BFE32465346FAF78AFE244A2C
:10567000244BFAF789FE049B029AFAF7DEFD0746EF
:105680008A46009B0A9AFAF7D8FD04460E46009B0C
:105690000A9AFAF773FE3A465346FAF772FE33E077
:1056A000761500000000F03FB4150000E41400007F
:1056B0000000084009C7EE3FFD033ADCF5015B142A
:1056C000E02F3EBEBC130000821300000000F0BFBC
:1056D00000009040FE822B654715973C00CC90401F
:1056E00000346F3F01FCFFFF0000E03FB0120000FC
:1056F000FFFF0F00432EE63F396CA80C615C20BE13
:10570000EF39FAFE422EE63F0746224633460F9116
:1057100010461946FAF738FE834602462E488A4656
:105720000B4605217844FEF713F85A465346FAF71C
:105730002BFE22463346FAF724FE82468B463A4633
:10574000204631460F9BFAF71FFE3A460F9BFAF7A9
:1057500074FD0F460A9000224FF080435046594690
:10576000FAF70CFE0391009052465B462046314604
:10577000FAF70AFE039B009AFAF7CDFF3B460A9A16
:10578000FAF7FCFD22463346FAF7F8FD0022134BE8
:10579000FAF7F7FD0E46044601EB085108150028FC
:1057A00010DC424620463146FBF724F8FDF7B8FFEF
:1057B000042808BFFEF73AF8424620463146FBF778
:1057C00019F8044606980B4614B022462946BDE84F
:1057D000F04DFAF7D9BD0000581100000000F03F6D
:1057E00000E0401C20B1017811B101782029F8DDDA
:1057F00070472DE9F04106460F46FBF790F804008C
:105800000D4618BF0120284320F00040C0F17F6002
:1058100000F1E040C00F0ED0301C18BF012038430B
:1058200020F00040C0F17F6000F1E040C00F04BFF5
:105830000120FEF713F820462946BDE8F08100005C
:10584000C0E0F0F8FC0000000000000000101010A4
:105850001000100000282828000000000028287CE4
:10586000287C282800103C503814781000004C2C5C
:105870001008606000304850205448340030102038
:105880000000000000081020202010080020100850
:1058900008081020000010543854100000001010A8
:1058A0007C1010000000000000001808100000002C
:1058B000007C000000000000000030300000040800
:1058C000102040000038444C54644438001030101C
:1058D00010101038003844040810207C007C081098
:1058E0000804443800081828487C0808007C4078E0
:1058F000040444380018204078444438007C0408EC
:1059000010202020003844443844443800384444AF
:105910003C040830000030300030300000003030EF
:105920000030102000081020402010080000007CEB
:10593000007C0000002010080408102000384404F7
:105940000810001000384404345C44380010284427
:10595000447C4444007844447844447800384440CB
:10596000404044380070484444444870007C404003
:105970007840407C007C40407840404000384440C3
:105980005C44443C004444447C444444003810108B
:1059900010101038001C080808084830004448500F
:1059A00060504844004040404040407C00446C54BB
:1059B0005444444400444464544C444400384444F3
:1059C00044444438007844447840404000384444DB
:1059D000445448340078444478504844003C4040A3
:1059E00038040478007C1010101010100044444457
:1059F000444444380044444444442810004444444B
:105A00005454542800444428102844440044444436
:105A100028101010007C04081020407C0038202042
:105A2000202020380000402010080400003808081A
:105A3000080808380010284400000000000000009A
:105A40000000007C0020100800000000000000386A
:105A5000043C443C00404058644444780000003812
:105A600040404438000404344C44443C00000038B6
:105A7000447C403800382420702020200000003C66
:105A800044443C04384040586444444400100030CE
:105A90001010103800080018080808483040404826
:105AA000506050480030101010101038000000688E
:105AB00054544444000000586444444400000038F6
:105AC00044444438000000586464584040000034A6
:105AD0004C4C340404000058644040400000003C3A
