:020000040800F2
:10000000D809002045010008B3190008B90E0008FE
:10001000AF190008AD080008832D0008000000009B
:10002000000000000000000000000000ED250008B6
:100030006D0A00080000000025210008BD29000805
:100040005F0100085F0100085F0100085F01000810
:100050005F0100085F0100085F0100085F01000800
:100060005F0100085F0100085F0100085F010008F0
:100070005F0100085F0100085F0100085F010008E0
:100080005F0100085F0100085F0100085F010008D0
:100090005F0100085F0100085F0100085F010008C0
:1000A0005F0100085F0100085F0100085F010008B0
:1000B0005F0100085F0100085F0100085F010008A0
:1000C0005F0100085F0100085F0100085F01000890
:1000D0005F010008212A0008692A0008B12A0008E7
:1000E0005F0100085F0100085F0100085F01000870
:1000F0005F0100085F0100085F0100085F01000860
:100100005F0100085F0100085F0100085F0100084F
:100110005F0100085F0100085F0100085F0100083F
:100120005F0100085F0100085F0100085F0100082F
:10013000DFF80CD000F0B8FA004800475538000846
:10014000D80900200648804706480047FEE7FEE73A
:10015000FEE7FEE7FEE7FEE7FEE7FEE7FEE7FEE777
:10016000C12900083101000840EA01039B0703D0C0
:1001700009E008C9121F08C0042AFAD203E011F8E6
:10018000013B00F8013B521EF9D27047D2B201E0A8
:1001900000F8012B491EFBD270470022F6E710B58C
:1001A00013460A4604461946FFF7F0FF204610BDE5
:1001B00030B505462A460B4612F8010B13F8014BE1
:1001C00008B1A042F8D01CB1002802D06D1CF1E7A4
:1001D000284630BDCAB2401E10F8011F8A4202D024
:1001E0000029F9D100207047421C10F8011B00299A
:1001F000FBD1801A704710B5044600E0401C03781C
:10020000002BFBD100E0401C521E04D311F8013B2F
:100210000370002BF7D100210170204610BD70B58E
:10022000064602F013FE046805460A220021304605
:1002300000F049F82C6070BD30B50B460146002037
:100240002022012409E021FA02F59D4205D303FA98
:1002500002F5491B04FA02F52844151EA2F1010219
:10026000F1DC30BD2DE9F05F0546002092469B464B
:1002700088460646814640241BE0284641464746BC
:10028000224600F032FA53465A46C01A914110D322
:1002900011461846224600F019FA2D1A67EB01089C
:1002A0004F4622460120002100F010FA17EB00090A
:1002B0004E41201EA4F10104DFDC484631462A46A7
:1002C0004346BDE8F09F2DE9F04791460F46804632
:1002D0000446002614F8015B2DB100F029FA0068ED
:1002E000405DC007F6D12B2D02D02D2D18D0641EF5
:1002F0004A463946204600F01FFA27B13968A14224
:1003000001D1C7F8008071054FF002040BD54042BF
:10031000002803DD02F09AFD0460A007BDE8F08725
:1003200046F48066E4E70028F8DA02F08FFD046006
:100330006FF00040F2E72DE9FE4F804681EA0300AE
:10034000C00F0C46009021F0004123F00045B8EBAF
:100350000200A94105D24046214690461C460B4664
:10036000024623F00040104347D0270DC7F30A0090
:10037000C3F30A510290401A019040286BDAC3F38C
:10038000130040F4801B0098924620B10023D2EB6A
:10039000030A63EB0B0B01985946C0F1400250462B
:1003A00000F094F906460D4650465946019A00F071
:1003B000ACF910EB08006141002487EA115284EA8D
:1003C000E7731A4340D0009A62B3019A012A4FEAB8
:1003D000075215DC001B61EB02014FF0004202EAFC
:1003E0000752CDE90042001C41F5801132462B46F0
:1003F00000F000FA03B0BDE8F08F40462146F9E76F
:10040000001B61EB0201001C41F5801300185B41E9
:100410002018A2F5001747EB030140EAD570B61982
:100420006D4111E06D084FEA360645EAC0754FEAA6
:100430000752001B61EB0201001C41F580114908C5
:100440004FEA30000019514132462B4603B0BDE857
:10045000F04F00F0C0B90098012240000023D0EB1B
:10046000020263EBE073009821464FEAE074B8EBB8
:10047000000061EB0401E9E783F000435BE781F0F2
:10048000004158E72DE9FE4F81EA030404F00044DF
:1004900021F0004100944FF0000B23F0004350EA9C
:1004A00001045ED052EA03045BD0C3F30A54C1F3E3
:1004B0000A552C44A4F2F3340194A0FB0254C1F376
:1004C000130141F48011C3F3130343F4801301FBC0
:1004D000024400FB034E840A970A44EA815447EA27
:1004E0008357A4FB076802958D0A05FB07854FEA31
:1004F000932C04FB0C542705029D4FEA065847EA4B
:100500001637B5EB08056EEB070C870E920E47EA1F
:10051000811742EA8312A7FB0201B6EB0B0164EBE1
:1005200000042B0D43EA0C335E1844EB1C50DA46F2
:100530005146E7FB0201C5F313044FEA0B3343EACC
:1005400014534FEA0432019C43EA0603A4F10C045D
:100550000294009CCDE900B400F04CF903B0BDE872
:10056000F08F00200146F9E72DE9F04D81EA030400
:1005700004F0004B21F0004514464FF0000A23F030
:10058000004150EA050220D054EA01021DD0C5F313
:100590000A570246C5F31303C1F31300C1F30A5609
:1005A00040F4801543F48013A7EB0608101BD646D1
:1005B00008F2FD3873EB050002D308F1010801E0F1
:1005C00092185B41B8F1000F03DA00200146BDE844
:1005D000F08D00204FF48011064684460EE0171B74
:1005E00073EB050705D3121B63EB050306434CEAC7
:1005F000010C49084FEA300092185B4150EA0107AC
:10060000EDD152EA030012D082EA040083EA050128
:10061000084305D0101BAB4106D20122002306E09F
:1006200000224FF0004302E06FF0010253101AEB7A
:1006300006004CEB085110EB0A0041EB0B01BDE842
:10064000F04D00F0C8B8C1F30A52C1F3130140F2F3
:10065000FF3341F480119A4202DA002001467047CC
:1006600040F233439A42A2F2334202DC524200F09B
:100670003CB800F02BB8000030B5041E71F1000446
:1006800004DB4FF00044404264EB0101141E73F19F
:10069000000405DB1C464FF00043524263EB0403A9
:1006A000994208BF904230BD064C074D06E0E06815
:1006B00040F0010394E8070098471034AC42F6D3A9
:1006C000FFF73AFDAC3A0008CC3A0008202A04DBD8
:1006D000203A00FA02F1002070479140C2F1200355
:1006E00020FA03F3194390407047202A04DB203A94
:1006F00021FA02F00021704721FA02F3D040C2F142
:1007000020029140084319467047202A06DBCB1788
:10071000203A41FA02F043EAE07306E041FA02F3BC
:10072000D040C2F1200291400843194670470000B2
:1007300000487047A83A00082DE9F05F824600782B
:10074000002715468B460AF10104B946302801D02E
:100750009DB113E014F8010B0127782803D0582825
:1007600001D045B10AE00DB1102D07D100271025A9
:1007700014F8010B02E0082500E00A250026B04627
:100780000EE005FB080005FB06F1012701EB104612
:100790001FFA80F8B6F5803F00D3B94614F8010B74
:1007A000294600F075F80028EBDABBF1000F05D000
:1007B0000FB1641E00E05446CBF80040B9F1000FC1
:1007C00006D002F043FB02210160C81EBDE8F09F85
:1007D00048EA0640FAE710B5141E73F1000408DA7F
:1007E000401C41F1000192185B411A4301D120F0F5
:1007F000010010BD2DE9F04D92469B4611B1B1FAB2
:1008000081F202E0B0FA80F220329046FFF75EFFFC
:1008100004460F4640EA0A0041EA0B0153465A4695
:10082000084313D0114653EA010019D0C8F1400221
:100830005046FFF75AFF05460E4650465946424677
:10084000FFF744FF084305D0012004E02046394665
:10085000BDE8F08D0020054346EAE0762C4337439F
:100860000A986305E40AA0EB08000022FD0A44EAA6
:1008700047540A3002D500200146E9E70105101966
:100880006941DDE9084500196941BDE8F04DA2E77D
:100890003A2800D2303820F02002412A01D3A2F1B8
:1008A0003700884201D34FF0FF30704700BFFEE7AA
:1008B00010B50024042000F03FF804E0601CC4B22E
:1008C000012002F079FF02210F4800F0E8FA08B198
:1008D000642CF3DB642C01DB002010BD002404E059
:1008E000601CC4B2012002F067FF0221064800F03C
:1008F000D6FA08B9642CF3DB642C01DB0020ECE7AA
:1009000000240120E9E700000008014008B50121AA
:10091000042001F05DFC0220ADF8000010208DF8ED
:10092000030003208DF802006946024800F02CFA0B
:1009300008BD00000008014038B504460220ADF8AB
:1009400000008DF8034003208DF80200694602483C
:1009500000F01AFA38BD00000008014010B500246C
:1009600004E0601CC4B2012002F026FF02211048FE
:1009700000F095FA08B1642CF3DB002404E0601C5D
:10098000C4B2012002F018FF0221094800F087FAE2
:1009900008B9642CF3DB0024282002F00DFF0221AB
:1009A000034800F07CFA08B1012010BD0020FCE7EC
:1009B0000008014070B50024002506E06006040E22
:1009C000FFF7CCFF0443681CC5B2082DF6DB2046B8
:1009D00070BD2DE9FC4105460E461746984600F0CD
:1009E0002FF8FFF765FF30B3002405E0FFF7E2FFC3
:1009F0000DF80400601CC4B2052CF7DB9DF8000064
:100A00009DF8011008449DF8021008449DF8031059
:100A100008449DF80410884210D19DF80200287007
:100A20009DF8030038709DF8000030709DF80100BB
:100A300088F8000002E00020BDE8FC810120FBE70F
:100A400010B51020FFF778FF0221074800F030FAB8
:100A5000142002F08BFE0221034800F02BFA0D2037
:100A600002F0AAFE10BD000000080140704700001F
:100A700010B580210348FFF790FB00200249088051
:100A800010BD0000440000202C00002070B5054679
:100A9000002400BF00F05EF980B90DA10E48FFF7F9
:100AA00087FB044654B13A212046FFF793FB0446E6
:100AB00014B1641C204670BD0020FCE7052002F044
:100AC00055FE681E85B2002DE4DC0020F3E700002F
:100AD0004950442C000000004400002010B501F0F3
:100AE00009FEFFF7C5FF32A1334802F065F903E0C4
:100AF0004FF4FA7002F03AFE30A131A000F0E2F8B3
:100B00000028F5D130A12C4802F056F92DA131A0D2
:100B100000F0D8F84FF4FA7002F028FE29A130A0B6
:100B200000F0D0F84FF4FA7002F020FE30A1224815
:100B300002F042F903E04FF4FA7002F017FE1FA131
:100B40002EA000F0BFF80028F5D130A11A4802F01D
:100B500033F903E04FF4FA7002F008FE17A12FA05A
:100B600000F0B0F80028F5D130A1134802F024F9C4
:100B700003E04FF4FA7002F0F9FD2FA130A000F06D
:100B8000A1F80028F5D138A10B4802F015F903E0CF
:100B90004FF4FA7002F0EAFD37A139A000F092F8A4
:100BA0000028F5D141A1044802F006F910BD00006B
:100BB000302E2041540D0A00004400404F4B0000ED
:100BC00041540D0A00000000312E205253540D0AEA
:100BD0000000000041542B5253540D0A0000000045
:100BE00041542B434950434C4F53450D0A000000DC
:100BF000322E2043574D4F44450D0A0041542B439C
:100C0000574D4F44453D310D0A000000332E204121
:100C1000542B4357444843500D0A000041542B4382
:100C200057444843503D312C310D0A00342E2043A7
:100C3000574A41500D0A0000474F542049500000C8
:100C400041542B43574A41503D2254502D4C494E5C
:100C50004B5F44414642222C223132303263686578
:100C60006E220D0A00000000352E204349505354D7
:100C70004152540D0A000000434F4E4E454354006C
:100C800041542B43495053544152543D22544350F4
:100C9000222C2234322E3139342E3231342E31305E
:100CA00031222C313838330D0A000000362E204511
:100CB00053503832363620496E6974204F4B0D0A36
:100CC000000000002DE9F04104460D46C8262046EC
:100CD000FFF78AFA87B23946204602F055F80FE04E
:100CE00000F038F848B929460948FFF761FA20B101
:100CF000FFF7BEFE0020BDE8F0810A2002F036FDBD
:100D00003000A6F10101CEB2EAD10120F3E70000E4
:100D10004400002030B589B005460C46FFF7A8FE18
:100D2000224607A101A802F06BF809A101A8FFF76C
:100D3000C9FF18B92146284602F026F809B030BD8F
:100D400041542B43495053454E443D25640D0A0000
:100D50003E0000000A48008808B901207047084892
:100D6000008808490988884203D100200449088086
:100D7000F4E703480088034908800120EEE70000FB
:100D80002C0000202E0000202DE9F0410246002515
:100D90000026002000230024002791F803C00CF057
:100DA0000F0591F803C00CF0100CBCF1000F03D03C
:100DB00091F802C04CEA050591F800C0BCF1000FA3
:100DC00031D0146800202BE04FF0010C0CFA00F336
:100DD000B1F800C00CEA03069E4220D183004FF018
:100DE0000F0C0CFA03F7BC4305FA03FC4CEA0404AD
:100DF00091F803C0BCF1280F06D14FF0010C0CFA9A
:100E000000FCC2F814C00AE091F803C0BCF1480F1E
:100E100005D14FF0010C0CFA00FCC2F810C0401CC8
:100E20000828D1D31460B1F800C0BCF1FF0F34DD45
:100E3000546800202EE000F1080C4FF0010808FA79
:100E40000CF3B1F800C00CEA03069E4221D18300E6
:100E50004FF00F0C0CFA03F7BC4305FA03FC4CEA05
:100E6000040491F803C0BCF1280F05D100F1080C6F
:100E700008FA0CF8C2F8148091F803C0BCF1480FCE
:100E800007D100F1080C4FF0010808FA0CF8C2F87D
:100E90001080401C0828CED35460BDE8F081024683
:100EA000002093680B400BB1012000E00020704748
:100EB000416170470161704700BFFEE710B54FF414
:100EC00000510248FFF7F6FF10BD0000001001407E
:100ED00010B54FF400510248FFF7EAFF10BD0000C3
:100EE0000010014008B50121102001F071F94FF404
:100EF0000050ADF8000010208DF8030003208DF89D
:100F0000020069460448FFF73FFF4FF400510248D2
:100F1000FFF7CEFF08BD00000010014010B50446E9
:100F2000207B012802D1206802F06CFC00202060A8
:100F30006060A060207310BD0246002301230DE015
:100F400002F07F000870D2092AB1087840F08000D2
:100F50000870491C01E0184670475B1C042BEFDD4C
:100F60004FF0FF30F8E770B504460E4600252068C4
:100F700098B901202073304602F01EFD20602068E1
:100F8000E0B100206060A66003E0002021684855C1
:100F90006D1CA068A842F8D810E00220207303E07E
:100FA0000020216848556D1CA068A842F8D8002090
:100FB0006060A068B04201D20020206070BD0000D7
:100FC0002DE9FF5F07460D4690463846FFF70CF9BE
:100FD00086B22846FFF708F91FFA80FA4FF0000999
:100FE000F01D02F0E9FC04461CB9012004B0BDE884
:100FF000F09FF11D2046FFF7D0F812A00168216094
:101000008088A080324639462046FFF7F4F828460B
:10101000FFF7EAF883460120002100915B462A464B
:10102000CDE90208019121460A2000F05FF910B9CC
:101030004FF0000901E04FF00109204602F0E2FB09
:101040004846D3E724637273702F00002DE9FF4FE9
:1010500083B082468B469146159C00250020029065
:101060000F2701904846FFF7BFF80FFA80F8B9F153
:10107000000F03D1012007B0BDE8F08F08F1020096
:10108000384487B2109808B145F00205129878B13B
:1010900045F004051298FFF7A7F8C0B20290139824
:1010A000FFF7A2F801460298001D0844384487B2B1
:1010B000119820B1012804D0022808D104E000BF13
:1010C00007E045F00C0504E045F0140501E00220BE
:1010D000D1E700BF149808B145F02405BAF1000F1C
:1010E00002D0BBF1000F01D10320C4E745F0C005D9
:1010F0005046FFF779F806465846FFF775F8304432
:10110000001D384487B239462046FFF72CFF20687F
:1011100008B90420AFE739462068FFF73EF81021F0
:101120006268501C606020688154D4E90023D118A3
:10113000781FFFF701FF00B201900198002804DA40
:101140002046FFF7EBFE052095E76168019808440B
:10115000606000216268501C606020688154042136
:101160006268501C6060206881544D216268501C88
:1011700060602068815451216268501C6060206862
:10118000815454216268501C6060206881546268F8
:10119000501C60602068815404216268501C6060AB
:1011A000206881546168481C606020684554069836
:1011B000010A6268501C6060206881540698C1B2C0
:1011C0006268501C606020688154C8F3072162681F
:1011D000501C6060206881546268501C6060206808
:1011E00000F80280D4E90012881842464946FFF709
:1011F00002F860684044606005F00400B8B300265F
:10120000139808B938A013901298FEF7EDFF86B234
:10121000310A6268501C6060206881546268501C0A
:10122000606020688654D4E900128818324612990A
:10123000FEF7E1FF6068304460601398FEF7D4FF6A
:1012400086B2310A6268501C60602068815462680E
:10125000501C606020688654D4E900128818324619
:101260001399FEF7C8FF60683044606000BF05F066
:101270008000C8B15046FEF7B7FF86B2310A6268F7
:10128000501C6060206881546268501C6060206857
:101290008654D4E90012881832465146FEF7ABFF57
:1012A00060683044606000BF05F04000C8B1584637
:1012B000FEF79AFF86B2310A6268501C60602068AF
:1012C00081546268501C606020688654D4E9001222
:1012D000881832465946FEF78EFF606830446060D9
:1012E00000BF0020C7E60000000000002DE9FF4F0E
:1012F00083B0834617469946139C0025002600209C
:10130000029001908046BBF1000F03D1012007B08D
:10131000BDE8F08F00260AE00498805D232803D002
:101320000498805D2B2801D10220F0E7761C0498F8
:10133000805D0028F0D148F03008119808B148F0DD
:10134000010806EB0900851C109820B1012804D083
:1013500002280AD105E000BF09E048F00208AD1CF0
:1013600005E048F00408AD1C01E00320CFE700BF12
:101370008FB33878022821D14FF0000A00BF5046C1
:101380000AF1010A385C7D28F9D1AAF1030A0AF1B1
:10139000070002900298A9EB000AE81CA0EB0A01E2
:1013A0002046FFF7E0FD206808B90420AFE7EA1CFB
:1013B000A2EB0A012068FEF7F0FE19E0691D204645
:1013C000FFF7D1FD206808B90420A0E7691D206857
:1013D000FEF7E3FE0CE0FFE7691D2046FFF7C3FDC3
:1013E000206808B9042092E7691D2068FEF7D5FE41
:1013F0006168481C6060206800F80180D4E9000240
:1014000081182846FFF798FD01900198002804DA1A
:101410002046FFF783FD052079E7616801980844BD
:101420006060C6F307216268501C606020688154C8
:101430006268501C606020688654D4E900128818E5
:1014400032460499FEF7D7FE606830446060109819
:1014500060B14FEA1B216268501C606020688154B3
:101460006268501C6060206800F802B0C7B138782C
:1014700002280BD1D4E9001288183946029AFEF7E7
:1014800073FE616802980844606009E0D4E90012C4
:1014900088184A463946FEF767FE6068484460602F
:1014A000002034E770B505460C4604212046FFF7BE
:1014B0005AFD206808B9012070BD40216268501CA7
:1014C00060602068815402216268501C606020685E
:1014D000815429126268501C6060206881546268DF
:1014E000501C6060206885540020E5E770B5054613
:1014F0000C4604212046FFF736FD206808B901207C
:1015000070BD70216268501C6060206881540221A7
:101510006268501C60602068815429126268501C07
:101520006060206881546268501C60602068855447
:101530000020E5E770B505460C4604212046FFF77C
:1015400012FD206808B9012070BD50216268501C4E
:1015500060602068815402216268501C60602068CD
:10156000815429126268501C60602068815462684E
:10157000501C6060206885540020E5E770B5054682
:101580000C4604212046FFF7EEFC206808B9012034
:1015900070BD62216268501C606020688154022125
:1015A0006268501C60602068815429126268501C77
:1015B0006060206881546268501C606020688554B7
:1015C0000020E5E7F0B504460D462646012300203D
:1015D0001060002114E0775C07F07F07106807FBBC
:1015E00003001060705C00F0800008B9481CF0BD7A
:1015F000DB01B3F5001F02D36FF00100F7E7491CD0
:10160000A942E8DB4FF0FF30F1E72DE9F8438046CF
:101610000C4615461E462F2108F10600FEF7DAFD9E
:1016200007460020009017B90120BDE8F8837F1C11
:101630006A46042108F10100FFF7C4FF252002F0EB
:10164000BBF92060206808B90220EEE72521206858
:10165000FEF7A3FD242239462068FEF785FD2437D6
:1016600000982C3830803188481C02F0A5F9286099
:10167000286820B9206802F0C5F80320D5E7328831
:10168000511C2868FEF789FD328839462868FEF724
:101690006BFD0020C9E701464878022801D00120EF
:1016A0007047887810B18878012801D1C878F7E7A9
:1016B000FF20F5E72DE9FC5F81460D4614461E46E6
:1016C000DDE90C8B99F8000000F00F0A0020019072
:1016D0000AF008000090CAF341008BF8000001AA4C
:1016E000042109F10100FFF76DFF4844471C0198F0
:1016F000022802D30AF0010010B1FF20BDE8FC9FD0
:101700007878397840EA012020802088801C01996F
:10171000884201D9FF20F1E754A1B81CFEF748FD2B
:1017200008B10F20EAE79BF8000020B101283DD066
:10173000022877D13BE0009808B1FF20DEE721883E
:10174000481C02F039F92860286808B9FF20D5E75D
:101750002288511C2868FEF720FD2288B91C2868C1
:10176000FEF702FD0198801E2188401AA8F80000AB
:10177000B8F80010481C02F01FF93060306820B93A
:10178000286802F03FF8FF20B8E7B8F80020511CA5
:101790003068FEF702FDB8F80020B4F800C0BB1CAA
:1017A0000CEB03013068FEF7DFFC4FE000BF208840
:1017B000801C0199884201D9FF209FE72088C01C26
:1017C000395C2088801C385C41EA00210E98018039
:1017D0000E9808B9FF2091E72188481C02F0ECF828
:1017E0002860286808B9FF2088E72288511C2868EB
:1017F000FEF7D3FC2288B91C2868FEF7B5FC0198D7
:10180000001F2188401AA8F80000B8F80010481CF2
:1018100002F0D2F83060306828B9286801F0F2FF91
:10182000FF206BE710E0B8F80020511C3068FEF78D
:10183000B4FCB8F80020B4F800C03B1D0CEB030169
:101840003068FEF791FC01E0FF2057E700BF2B2135
:101850002846FEF7BFFC20B923212846FEF7BAFC34
:1018600008B1FF204AE7002048E7000024637265C2
:101870007100000001464878022801D0012070471D
:10188000887820B9C8780A2801D10020F7E701201C
:10189000F5E701464878022801D001207047887892
:1018A00020B9C8780A2801D10020F7E70120F5E720
:1018B00001464878022801D001207047887820B975
:1018C000C8780A2801D10020F7E70120F5E7024691
:1018D0005078022801D0012070479078B0EB112F8A
:1018E00005D1D078CBB2984201D10020F4E7012095
:1018F000F2E70000F8B50446FF2720780511012D16
:1019000001DB0E2D01DD3846F8BD032D24D100206A
:1019100000906A460421601CFFF754FE2044461CD8
:101920000098022803D3207800F0010008B1FF20BE
:10193000EAE77078317840EA0120801C00998842FB
:1019400001D9FF20E0E706A1B01CFEF731FC08B189
:101950000F2700E0032700E02F463846D4E70000B9
:1019600024637265710000000146FF208A78A2B9E5
:10197000CA78142A11D10A7932B1012A05D0022A73
:1019800004D0802A06D103E000BF00BF002003E09E
:10199000012001E0022000BF00BF70470146012086
:1019A0008A781AB9CA781E2A00D10020704700BF71
:1019B000FEE7704770B5002100230F22C47804B3FE
:1019C000154C246804F4E064C4F5E064210AC1F114
:1019D0000403CA40447804FA03F184781440214394
:1019E00009010E4C0678A155047804F01F05012466
:1019F000AC4005786D11AD0005F1E025C5F800415A
:101A000009E0047804F01F050124AC40044D067879
:101A1000761145F8264070BD0CED00E000E400E0D2
:101A200080E100E002490143024A11607047000072
:101A30000000FA050CED00E030B58BB000200790F7
:101A4000089009900A90012530A033A335A237A150
:101A50000090424801F0B0F907A8002102910391DB
:101A6000CDE9041000912B0228A201912AA12DA0FA
:101A7000FFF7ECFA002842D1089A91B20798FFF7D5
:101A800049F9FA20FFF702F80446002C33D020462B
:101A9000FFF730FF02282ED12046FFF7FCFD062875
:101AA00023D2DFE800F003090E13181D2CA12B48E8
:101AB00001F082F900251DE02FA1284801F07CF9F2
:101AC00018E037A1254801F077F913E03FA123483A
:101AD00001F072F90EE047A1204801F06DF909E02C
:101AE00051A11E4801F068F904E059A11B4801F01A
:101AF00063F900BF00BF07A8FFF710FA03E05DA17C
:101B0000164801F059F928460BB030BD61646D6983
:101B10006E363736313233003738313563736464AB
:101B20002E00000061646D696E0000004F6E654E0E
:101B300065745F4465764C696E6B0D0A50524F496F
:101B4000443A2025732C09415549463A2025732CE7
:101B50000944455649443A25730D0A0000440040A3
:101B6000546970733A09E8BF9EE68EA5E68890E551
:101B70008A9F0D0A000000005741524E3A09E8BF03
:101B80009EE68EA5E5A4B1E8B4A5EFBC9AE58D8FDD
:101B9000E8AEAEE99499E8AFAF5C720A00000000CD
:101BA0005741524E3A09E8BF9EE68EA5E5A4B1E83A
:101BB000B4A5EFBC9AE99D9EE6B395E79A84636C61
:101BC00069656E7469640D0A000000005741524E49
:101BD0003A09E8BF9EE68EA5E5A4B1E8B4A5EFBC3E
:101BE0009AE69C8DE58AA1E599A8E5A4B1E8B4A59B
:101BF0000D0A00005741524E3A09E8BF9EE68EA5F5
:101C0000E5A4B1E8B4A5EFBC9AE794A8E688B7E5E7
:101C1000908DE68896E5AF86E7A081E99499E8AFD4
:101C2000AF5C720A000000005741524E3A09E8BF0B
:101C30009EE68EA5E5A4B1E8B4A5EFBC9AE99D9E09
:101C4000E6B395E993BEE68EA55C720A000000003B
:101C50004552523A09E8BF9EE68EA5E5A4B1E8B424
:101C6000A5EFBC9AE69CAAE79FA5E99499E8AFAFD7
:101C70005C720A005741524E3A094D5154545F501C
:101C800061636B6574436F6E6E6563742046616952
:101C90006C65640D0A00000070B588B005460C46FE
:101CA0000020049005900690079023462A4610A134
:101CB000174801F081F82046FEF796FA064604A878
:101CC00001210022CDE9001233462246CDE902105F
:101CD00029460A20FFF70AFB38B9059A91B2049801
:101CE000FFF718F804A8FFF719F908B070BD000055
:101CF0005075626C69736820546F7069633A20256F
:101D0000732C204D73673A2025730D0A00000000E4
:101D1000004400402DE9F04190B0074600200C90AF
:101D20000D900E900F900B900A900990089000264D
:101D300007900025002480463846FFF7DBFD064665
:101D4000F01E0D2874D2DFE800F02B77809AB6DB06
:101D5000BFDBCDDBDBDB070008AB0BAA0AA93846EB
:101D6000FFF753FC0546D5B9BDF8200000907DA1D2
:101D70008548DDE90A2301F01FF80CAADDE90A0114
:101D8000FFF71EF958B981A17F4801F015F80D9AA7
:101D900091B20C98FEF7BEFF0CA8FFF7BFF8B2E0B7
:101DA000804807A908AA0BABCDE90021029009AA37
:101DB0000AA93846FFF77EFC0546002D3BD1BDF849
:101DC00020000B99CDE90010BDF8243076A16E48B3
:101DD0000A9A00F0F1FF9DF81C00012802D00228A9
:101DE00027D112E00CA96F480088FFF75BFB58B9B8
:101DF0007CA1654800F0E0FF0D9A91B20C98FEF7C7
:101E000089FF0CA8FFF78AF814E00CA96548008840
:101E1000FFF790FB58B979A15B4800F0CDFF0D9A10
:101E200091B20C98FEF776FF0CA8FFF777F801E067
:101E300066E000BF00BF66E03846FFF71BFD18B93B
:101E400074A1514800F0B8FF5DE03846FFF730FD5F
:101E5000A0B978A14C4800F0AFFF0CA90A20FFF709
:101E60008DFB58B979A1484800F0A6FF0D9A91B2B0
:101E70000C98FEF74FFF0CA8FFF750F843E04948D5
:101E800001883846FFF723FDA0B976A13E4800F04F
:101E900093FF0CA90A20FFF729FB58B977A13A480C
:101EA00000F08AFF0D9A91B20C98FEF733FF0CA850
:101EB000FFF734F827E03846FFF7EBFC18B976A1B6
:101EC000314800F079FF1EE03846FFF74DFD20B99C
:101ED00077A12D4800F070FF03E07CA12A4800F0B4
:101EE0006BFF10E03846FFF759FD20B97EA1264868
:101EF00000F062FF03E083A1234800F05DFF02E0F1
:101F00004FF0FF3500BF00BFFEF7B2FD681C10B9EF
:101F100010B0BDE8F0817D210B98FEF75BF9044617
:101F2000A4B1681C90B1641C06E014F8012B404673
:101F300008F1010804A90A542078302802DB20782F
:101F40003928F2DD04A8FEF76AF980460F2E01D089
:101F5000032E05D10A9801F055FC0B9801F052FCB4
:101F600000BFD5E7636D6469643A2025732C207245
:101F700065713A2025732C207265715F6C656E3A2D
:101F80002025640D0A00000000440040546970736D
:101F90003A0953656E6420436D64526573700D0A8F
:101FA0000000000034000020746F7069633A20253F
:101FB000732C20746F7069635F6C656E3A202564C2
:101FC0002C207061796C6F61643A2025732C20702D
:101FD00061796C6F61645F6C656E3A2025640D0AEF
:101FE00000000000546970733A0953656E64205014
:101FF00075626C69736841636B0D0A005469707394
:102000003A0953656E64205075626C697368526555
:10201000630D0A00546970733A094D5154542050AD
:1020200075626C6973682053656E64204F4B0D0AAE
:1020300000000000546970733A09526576205075AB
:10204000626C6973685265630D0A000054697073AD
:102050003A0953656E64205075626C697368526505
:102060006C0D0A00546970733A09526576205075F8
:10207000626C69736852656C0D0A00005469707374
:102080003A0953656E64205075626C697368436FDA
:102090006D700D0A00000000546970733A095265B2
:1020A00076205075626C697368436F6D700D0A001D
:1020B000546970733A094D515454205375627363D7
:1020C00072696265204F4B0D0A00000054697073FD
:1020D0003A094D51545420537562736372696265B5
:1020E000204572720D0A0000546970733A094D510F
:1020F000545420556E537562736372696265204F44
:102100004B0D0A00546970733A094D5154542055CF
:102110006E537562736372696265204572720D0A4F
:1021200000000000704701468888B0F5807F01D12B
:10213000012070470020FCE70146002200BF04E0B8
:102140000023881D8354501C82B2FF2AF8DD002032
:102150000880488088800120704700B502460B4601
:102160001046FFF7E0FF012801D1002000BD518893
:10217000901D43545188481CC11700EB116109128E
:10218000A0EB012151809088401C90800120EDE758
:1021900029B1064AD2690243044BDA6104E0034ADA
:1021A000D2698243014BDA6170470000001002409F
:1021B00029B1064A12690243044B1A6104E0034A3A
:1021C00012698243014B1A617047000000100240FF
:1021D00029B1064A92690243044B9A6104E0034A1A
:1021E00092698243014B9A617047000000100240DF
:1021F00029B1064AD2680243044BDA6004E0034A7C
:10220000D2688243014BDA60704700000010024040
:1022100030B500210022002400232D4D6D6805F00B
:102220000C0121B1042905D0082923D105E0294D4D
:10223000056022E0274D05601FE0254D6D6805F41F
:102240007012234D6D6805F48034022505EB92422F
:102250001CB9214D554305600BE01D4D6D6805F41B
:1022600000351DB11C4D5543056002E0194D554325
:10227000056002E0174D056000BF00BF144D6D689A
:1022800005F0F0010909154D6B5C0568DD404560FE
:102290000F4D6D6805F4E061090A104D6B5C4568EF
:1022A000DD4085600A4D6D6805F46051C90A0B4D2B
:1022B0006B5C4568DD40C560054D6D6805F44041C7
:1022C000890B074D6B5CC568B5FBF3F5056130BD47
:1022D0000010024000127A0000093D0014000020A6
:1022E0002400002008B50220ADF8000001208DF880
:1022F000020004208DF8030069460248FEF744FD01
:1023000008BD0000000C014008B50220ADF8000037
:1023100010208DF8030003208DF802006946024862
:10232000FEF732FD08BD0000000C014008B5012198
:102330000820FFF74DFF0120ADF8000010208DF8B8
:10234000030003208DF8020069460548FEF71CFDD6
:102350000220ADF8000069460148FEF715FD08BDF2
:10236000000C014010B500200A490860FFF7CCFFBF
:1023700000200949C1F88401142001F01DFA012050
:1023800004490860142001F017FA00200249C1F83E
:10239000800110BD808121420080214210B50020C3
:1023A0000A490860FFF7B0FF01200949C1F884011C
:1023B000142001F001FA012004490860142001F002
:1023C000FBF900200249C1F8800110BD8081214243
:1023D0000080214270B505460024FFF783FF0026E8
:1023E00019E0002011490860142001F0E5F90120EE
:1023F0000F49C1F880014FF6FF7000EA4404022142
:102400000C48FEF74CFD08B1601C84B2142001F0AA
:10241000D3F9701CC6B2082EE3DB15B9FFF7BEFF77
:1024200001E0FFF79FFF204670BD00008081214240
:1024300000802142000C014070B50446FFF764FFA4
:1024400000201449086000251EE0E00920B10120A9
:102450001049091D086003E000200E49091D0860AD
:102460006006040E142001F0A7F901200949086054
:10247000142001F0A1F900200749C1F880011420BF
:1024800001F09AF9681CC5B2082DDEDB142001F0BA
:1024900093F970BD808121420080214210B5FFF781
:1024A00033FF0120094908600949C1F8800114205F
:1024B00001F082F9002005490860142001F07CF940
:1024C00000200349C1F8800110BD00008481214231
:1024D0000080214210B5FFF717FF0020084908606F
:1024E0000849C1F88401142001F066F9012004496B
:1024F00008600449C1F88401142001F05DF910BDA1
:10250000808121420080214210B50024FFF7EAFEBD
:102510000120104908600A2001F04EF901200E49FF
:10252000C1F880010A2001F047F907E0601CC4B23D
:10253000FA2C03DDFFF7CEFF012010BD0221074872
:10254000FEF7ADFC0028F1D10249091F086000BF69
:10255000F3E700008481214200802142000C014009
:1025600010B5FFF7E3FE0321202000F025F810BD91
:1025700070B5FFF793FFB120FFF75EFFFFF7C4FFD1
:102580000120FFF727FF044624020120FFF722FF66
:1025900004440120FFF71EFFC5B200BF2402012042
:1025A000FFF718FF044424020020FFF713FF044440
:1025B000FFF790FF204670BD70B505460C46FFF74B
:1025C0006DFFB020FFF738FFFFF79EFF2846FFF7AB
:1025D00033FFFFF799FF2046FFF72EFFFFF794FF29
:1025E000FFF778FF642001F0C1F870BD704700006C
:1025F00000B587B02C48FFF79FFD01214804FFF785
:10260000C7FD01210420FFF7E3FD284800F09AFAF6
:102610000420ADF8180003208DF81A0018208DF85A
:102620001B0006A92248FEF7AFFB0820ADF81800F2
:1026300048208DF81B0006A91D48FEF7A5FB4FF4A6
:10264000165002900C20ADF812000020ADF81000DA
:10265000ADF80E00ADF80C00ADF8140002A9134857
:1026600000F01AFB4FF4A060FFF7DCF926208DF88C
:10267000040001208DF8070003208DF805008DF877
:10268000060001A8FFF796F9012240F225510748FC
:1026900000F0DDFA0121054800F048FA0020054964
:1026A000087007B000BD0000CA01002000440040CF
:1026B000000801403100002010B5044621460548BD
:1026C00000F05BFB00BF8021024800F089FA00287F
:1026D000F9D010BD0044004070B50446002504E068
:1026E000605DFFF7E9FF681CC5B2605D0028F7D1A7
:1026F00070BD000000B587B001218804FFF748FDD8
:1027000001210420FFF764FD01210820FFF760FD8F
:102710002F4800F017FA8020ADF8180003208DF83C
:102720001A0010208DF81B0006A92A48FEF72CFB82
:1027300080212848FEF7BEFB4FF48060ADF81800FA
:1027400003208DF81A0018208DF81B0006A92248D6
:10275000FEF71AFB4FF40060ADF8180048208DF822
:102760001B0006A91C48FEF70FFB4FF41650029001
:102770000C20ADF812000020ADF81000ADF80E00EE
:10278000ADF80C00ADF8140002A9114800F084FA6D
:102790004FF4A060FFF746F927208DF804000120D0
:1027A0008DF807008DF805008DF8060001A8FFF7E9
:1027B00001F9012240F22551054800F048FA0121B3
:1027C000034800F0B3F90548FFF7B6FC07B000BDB9
:1027D0000048004000080140000C0140C4000020F7
:1027E00000B587B02D48FFF7A7FC01218803FFF74C
:1027F000EFFC01210420FFF7EBFC294800F0A2F9CF
:102800004FF40070ADF8180003208DF81A0018205E
:102810008DF81B0006A92348FEF7B6FA4FF4806036
:10282000ADF8180048208DF81B0006A91D48FEF7DA
:10283000ABFA4FF4165002900C20ADF812000020B5
:10284000ADF81000ADF80E00ADF80C00ADF81400B6
:1028500002A9134800F020FA4FF4A060FFF7E2F855
:1028600025208DF8040001208DF8070003208DF845
:1028700005008DF8060001A8FFF79CF8012240F240
:102880002551074800F0E3F90121054800F04EF911
:1028900000200549087007B000BD0000D0020020EC
:1028A00000380140000801403300002010B500F05E
:1028B00001F810BD0CB5002001900090334800686D
:1028C00040F480303149086000BF3048006800F4AF
:1028D000003000900198401C0190009818B90198B0
:1028E000B0F5A06FF1D12948006800F4003010B1B4
:1028F0000120009001E0002000900098012843D1C1
:102900002348006840F0100021490860084600682C
:1029100020F0030008600846006840F002000860EC
:102920001A484068194948600846406848600846A7
:10293000406840F4806048600846406820F47C109D
:1029400048600846406840F4E8104860084600685F
:1029500040F08070086000BF0C48006800F0007014
:102960000028F9D00948406820F003000749486072
:102970000846406840F00200486000BF03484068D5
:1029800000F00C000828F9D10CBD00000010024036
:1029900000200240042808D14FF0E021096941F0ED
:1029A00004014FF0E022116107E04FF0E0210969D6
:1029B00021F004014FF0E0221161704770470000E0
:1029C00010B51348006840F001001149086008463E
:1029D0004068104908400E494860084600680E49A2
:1029E00008400B4908600846006820F48020086011
:1029F0000846406820F4FE0048604FF41F008860DD
:102A0000FFF754FF4FF000600449086010BD00005C
:102A1000001002400000FFF8FFFFF6FE08ED00E0A6
:102A200010B540F225510C4800F0E7F8012811D10B
:102A3000094800F09DF9094908700120084908700B
:102A400040F22551044800F062F804480178054836
:102A5000FFF783FB10BD000000380140320000206A
:102A600033000020D002002010B540F225510C4860
:102A700000F0C3F8012811D1094800F079F909499B
:102A8000087001200849087040F22551044800F000
:102A90003EF8044801780548FFF75FFB10BD0000D1
:102AA000004400403000002031000020CA01002016
:102AB00010B540F225510E4800F09FF8B0B10D4816
:102AC0000088802802D300200A4908800848001D99
:102AD0000088C1B2074802880088401C054B188056
:102AE000054881542021024800F008F810BD00007C
:102AF000004800402C0000204400002001F4007237
:102B0000B2F5007F00D100BFCA430280704710B504
:102B10000022002340F66A14A14200D100BF0A122D
:102B200001249440A3B2DC43048010BD21B182890A
:102B300042F40052828104E082894DF6FF731A400C
:102B40008281704710B504462048844209D1012192
:102B50008803FFF74DFB00214FF48040FFF748FB4F
:102B600032E01B48844209D101214804FFF720FBD1
:102B700000214FF40030FFF71BFB25E0154884428D
:102B800009D101218804FFF713FB00214FF48020B5
:102B9000FFF70EFB18E01048844209D10121C80458
:102BA000FFF706FB00214FF40020FFF701FB0BE0CD
:102BB0000A48844208D101210805FFF7F9FA0021EB
:102BC0004FF48010FFF7F4FA10BD00000038014008
:102BD0000044004000480040004C004000500040CD
:102BE00002460020B1F5007F00D100BF13880B40E2
:102BF0000BB1012000E00020704770B502460024B0
:102C000000230025002040F66A16B14200D100BF23
:102C1000C1F3421501F01F03012606FA03F3012D4B
:102C200002D19689334006E0022D02D1168A334044
:102C300001E0968A33400C12012606FA04F4168845
:102C4000344013B10CB1012000E0002070BDF0B59C
:102C50000346002400260025002040F66A17B942EA
:102C600000D100BF1846C1F3421401F01F0601272E
:102C700007FA06F5012C01D10C3004E0022C01D139
:102C8000103000E014301AB107682F43076002E0EB
:102C90000768AF430760F0BD2DE9F04786B00546F1
:102CA0000E460024A24600BFA1460027B08900B10D
:102CB00000BF2F462C8A4CF6FF700440F088044376
:102CC0002C82AC894EF6F3100440B0883189084359
:102CD000718908430443AC81AC8A4FF6FF4004403D
:102CE000B0890443AC8201A8FFF792FA1F488742DB
:102CF00002D1DDF810A001E0DDF80CA0A88900F4F5
:102D0000004040B10AEBCA0000EB0A1031684900EC
:102D1000B0FBF1F807E00AEBCA0000EB0A103168DB
:102D20008900B0FBF1F86420B8FBF0F00401200941
:102D3000642101FB1089A88900F4004040B13220D1
:102D400000EBC900B0FBF1F000F00700044308E01D
:102D5000322000EB09106421B0FBF1F000F00F000D
:102D600004432C8106B0BDE8F08700000038014024
:102D700001468888C0F308007047C1F308028280CA
:102D8000704700BFFEE7000070B504460D46002600
:102D90000DE014F8011B0748FFF7EFFF00BF80218B
:102DA0000448FFF71DFF0028F9D0701C86B2AE4220
:102DB000EFDB70BD004800400FB430B5CBB0054626
:102DC00001AC50A800904FF4947101A8009B4F9A59
:102DD00000F02AF8002000900BE014F8011B2846B0
:102DE000FFF7CBFF00BF80212846FFF7F9FE002840
:102DF000F9D020780028F0D14BB030BC5DF814FB3E
:102E00000FB4084B10B504A902AA039800F0E4F827
:102E1000044602A9002000F081FC204610BC5DF8A9
:102E200014FB00001D3700087CB5491E1C461546E2
:102E3000CDE90001044B6A462146284600F0CCF853
:102E4000009A002111707CBD0737000800487047C8
:102E50004000002002E008C8121F08C1002AFAD171
:102E600070477047002001E001C1121F002AFBD10A
:102E7000704700002DE9FF5FDDE90220010DDDF85C
:102E800038B0024318D044F61050A1F2FF3141434C
:102E90000D140F98012820D0A5EB0B00401C5FEA11
:102EA000000A4FF00004474EDFF81C91A046504640
:102EB00016D5CAF1000728E00F98012443A2012883
:102EC00008D0002100980F9BC0E90021C0E902430F
:102ED000BDE8FF9F6FEA0B01F4E7CBF10000DEE7EE
:102EE000074612E0F80707D02246334640464946D7
:102EF000FDF7C8FA804689462246334610461946F1
:102F0000FDF7C0FA04460E467F10002FEAD1DDE936
:102F10000201BAF1000F42464B4602DAFDF7B2FA5F
:102F200001E0FDF721FB04460E460022284BFDF789
:102F3000A3FB03D84FF0FF30014607E00022254BEA
:102F400020463146FDF7F7F9FDF77DFB102409E037
:102F5000002C0ADB0A220023FDF784F9019B3032A2
:102F60001A55641E50EA0102F2D1641C019AC4F1A0
:102F7000110314440F9A012A03D0012208430DD1F2
:102F80000AE0084304D000204FF0110B0F9080E7B7
:102F9000A3EB0B056D1E0DE05B4504DD4FF0000259
:102FA00005F1010504E003DA4FF00002A5F1010587
:102FB000002AECD000980F99C0E90231C0E9004521
:102FC00086E70000000024400000F03F30000000D1
:102FD0000000F0430000E03F2DE9FF4F95B09B4615
:102FE0008946064600250FE2252877D1002427468A
:102FF000F84A0121059400E0044316F8013F203B04
:1030000001FA03F01042F7D130782A2811D06FF07E
:103010002F033078A0F13002092A16D8059A44F01F
:10302000020402EB820203EB42021044761C05907C
:10303000EFE759F8042B0592002A03DA504244F4D2
:103040000054059044F00204761C30782E2816D1E6
:1030500016F8010F44F004042A280DD06FF02F0257
:103060003078A0F13003092B09D807EB870302EB76
:103070004303C718761CF3E759F8047B761C3078B5
:103080006C280FD006DC4C2817D068280DD06A2891
:1030900014D104E0742810D07A280FD10DE044F444
:1030A00000140AE044F4801401E044F440147278FF
:1030B000824202D104F58014761C761C3078662892
:1030C0000BD013DC582877D009DC002875D04528B0
:1030D000F6D04628F4D047281AD19DE118E063289D
:1030E00035D0642879D0652812D195E1702873D045
:1030F00008DC6728F1D069286FD06E280DD06F28C2
:1031000006D1B5E073282CD0752875D0782874D0F6
:103110005A46179990476D1C75E1C4F30250022876
:1031200009D003280DD0D9F8001004280DD00D6067
:1031300009F1040967E1D9F80010EA17C1E9005262
:10314000F6E7D9F800100D80F2E70D70F0E719F8F6
:10315000041B8DF8001000208DF80100EA460120C4
:1031600003E059F804AB4FF0FF3061074FF0000166
:1031700002D40DE008F101018846B9420FDA80451A
:10318000F8DB1AF808100029F4D108E008F1010171
:1031900088468142FADB1AF808100029F6D1059812
:1031A0005B46A0EB080721463846179A00F094FAD0
:1031B000284400EB080507E04DE029E10DE01AF88E
:1031C000010B5A4617999047B8F10108F7D25B46B0
:1031D00021463846179A13E142E00A220092C4F3CE
:1031E00002524FF0000A022A08D059F804CB032AF1
:1031F0004FEAEC710AD00DE029E02AE009F107015D
:1032000021F00702F2E802C1914609E00FFA8CFCB6
:103210004FEAEC71042A03D14FFA8CFC4FEAEC71AF
:10322000002907DA0A460021DCF1000C61EB0201FB
:103230002D2202E0220504D52B228DF80420012244
:1032400003E0E20701D02022F7E7904659E00A2187
:1032500002E010220DE010214FF0000A00910BE077
:1032600010224FF0000A44F004040827009203E003
:1032700008224FF0000A0092C4F30252022A05D03D
:1032800059F804CB0021032A08D009E009F107010D
:1032900021F00702F2E802C1914605E01FFA8CFC1A
:1032A000042A01D10CF0FF0C4FF00008220728D5AA
:1032B000702806D0009B83F0100353EA0A0305D060
:1032C0000EE040228DF80420012208E05CEA0102B1
:1032D00006D030228DF804208DF805000222904699
:1032E000009B83F0080353EA0A030AD15CEA010257
:1032F00001D1620705D530228DF804204FF0010876
:103300007F1E582804D034A003900EA802900DE030
:1033100036A0F9E753466046009AFCF7A3FF8446BF
:103320000398825C0298401E029002705CEA0100E1
:10333000F0D1029806A9081A00F1200A600702D508
:1033400024F4803400E00127574502DDA7EB0A0092
:1033500000E0002000EB0A01009005984144401A6B
:103360000590E00306D45B462146179A059800F0C5
:10337000B3F90544002706E001A85A46C05D179935
:1033800090476D1C7F1C4745F6DBE0030CD55B4680
:103390002146179A059800F09FF9054404E0302073
:1033A0005A46179990476D1C0099481E00900029B5
:1033B000F5DC08E0029802995A460078491C02910F
:1033C000179990476D1CBAF10001AAF1010AF1DCCE
:1033D00065E10000092801003031323334353637D9
:1033E0003839616263646566000000003031323351
:1033F00034353637383941424344454600000000F1
:1034000000F058F90544761C307800287FF4ECADC4
:1034100019B02846BDE8F08F620700D4062709F1ED
:10342000070222F0070CFCE80223E14603F0004803
:103430005FEA080C02D00FF2702C0DE05FEA045C2A
:1034400002D50FF2682C07E05FEAC47C02D00FF2CD
:10345000602C01E0AFF2700C4FF0FF3823F0004316
:10346000CDF850C065280CD006DC452809D0462888
:103470001DD047283DD13DE0662818D067287ED171
:1034800038E00021112F01DB112000E0781CCDE98C
:10349000000106A90EA8FFF7EDFCDDE90F010E9A69
:1034A00003910021009207F1010A04914DE04FF0D1
:1034B00000400097CDE9011006A90EA8FFF7DAFC3D
:1034C000DDE90F0203920E9B11990022DDF80CA09A
:1034D0000093049211B9791C00EB010AB7EB0A00C2
:1034E00004D4C0F1FF3007F1010A0490AAEB0700F1
:1034F000019044E0012F00DA01270021112F01DDA6
:10350000112000E03846CDE9000106A90EA8FFF71A
:10351000B1FCDDE90F010E9A0391002104910092A4
:10352000BA4621070CD40399514500DA8A46BAF10C
:10353000010F05DD009AAAF10101515C302908D084
:10354000B84202DA10F1040F06DA0121CDE90110C8
:1035500015E0AAF10101E9E7002805DC049901441E
:103560000491AAEB000102E0411C514500DD8A46AE
:103570000499401A401C01904FF00040029020072F
:1035800004D40198504501DBCDF8048000208DF86B
:103590004F0002980DF14F07B0F1004F25D02B20BE
:1035A0000E9002984FF0020800280CDA4042029078
:1035B0002D200E9007E00A210298FCF73DFE3031E5
:1035C000029007F8011DB8F10001A8F10108F2DC32
:1035D00002980028EFD1791E0E980870307800F01C
:1035E000200040F0450007F8020D12A8C01B00F1B2
:1035F00007081498007800B1012000EB0A01019837
:1036000001EBE07105984144401A401E0590E0032B
:1036100006D45B462146179A059800F05DF80544EC
:103620001498007818B15A46179990476D1CE0031A
:1036300024D55B462146179A059800F04DF80544BD
:103640001CE00498002807DBDDE90301884203DD64
:103650000098405C179901E0179930205A4690472E
:10366000049805F10105401C04900198401E01904A
:1036700004D12E205A46179990476D1CBAF10001CB
:10368000AAF1010ADDDC05E017F8010B5A4617998B
:1036900090476D1CB8F10001A8F10108F4DC5B460D
:1036A0002146179A0598ABE62D0000002B0000007C
:1036B000200000002DE9F041044600251E46174673
:1036C000880404D405E039462020B0476D1C641EF0
:1036D000F9D52846BDE8F0812DE9F04104460025E2
:1036E0001E469046C80301D5302700E020278804F5
:1036F00004D505E041463846B0476D1C641EF9D537
:103700002846BDE8F0814A68002A06D00A68531CA2
:103710000B6010704868401E486070470A68531C70
:103720000B6010707047000010B56FF00400FFF7D9
:1037300031F90A4800680A49B0FBF1F009490870FC
:103740000846007800EB4001C1EBC0104FF6FF7156
:1037500001EAC0000449088010BD000000000020FC
:1037600000127A00280000202A0000200146114A99
:1037700012884A434FF0E0235A6100229A611A46A8
:10378000126942F001021A6100BF4FF0E022106995
:1037900000F001021AB100F48032002AF5D04FF097
:1037A000E022126922F001024FF0E0231A610022A8
:1037B0009A6170472A0000200146114A12784A4354
:1037C0004FF0E0235A6100229A611A46126942F0D2
:1037D00001021A6100BF4FF0E022106900F00102FF
:1037E0001AB100F48032002AF5D04FF0E0221269BD
:1037F00022F001024FF0E0231A6100229A61704723
:103800002800002010B5002821D0114B0022001FF5
:10381000196803E0814203D80A4649680029F9D1B2
:1038200052B11368841A9C4204D100681844106095
:10383000104602E0506000E0186039B102680B1ACF
:10384000934203D10B681A4402604968416010BD7D
:1038500038000020C6B00025FFF766FFFDF742FBE9
:10386000FDF754F8FEF7BCFFFEF7C2FEFEF742FF7D
:10387000FEF776FEFDF72CFB4FF47A70FFF776FF2C
:10388000FDF71CFB4FF47A70FFF770FF0821202032
:10389000FEF792FEFEF76CFE0446260CA7B232A19C
:1038A0003548FFF789FA4FF4FA70FFF75FFFFDF72D
:1038B00015F903E04FF4FA70FFF758FFFEF7BCF874
:1038C0000028F7D10FE008212020FEF775FEFEF753
:1038D0004FFE0446260CA7B228A0FEF7FDFE4FF4CB
:1038E000FA70FFF743FFB6F5C87F01D1002FEAD089
:1038F00038E008212020FEF75FFEFEF739FE04467F
:10390000260C00BF4FF4FA70FFF730FF02AB03AA9A
:1039100004A905A8FDF75DF813A11748FFF74CFAB5
:103920004CF25030FFF722FF4CF25030FFF71EFFF1
:1039300000969DF810309DF8142014A106A8FFF7FA
:103940005FFA06A919A0FEF7A7F9FDF791F8032081
:10395000FDF79CF8054615B12846FEF7DBF90A206D
:10396000FFF704FFC5E70000454D51585F507562F1
:103970006C6973680D0A000000440040646574655A
:103980006374696E672E2E2E0D0A00007B2254652B
:103990006D70223A25642C2248756D223A25642CDC
:1039A00022436F32223A25647D0000002F6D797426
:1039B0006573742F70756200F0B50B30154D20F0F3
:1039C00007010024144A0FE003688B420BD38B429B
:1039D00005D95E1A43184768C3E9006700E04368E9
:1039E000136002C004E0021D10680028ECD12046DC
:1039F000002802D1286808B10020F0BD064A074817
:103A00001060074A121A22F00702C0E900240120C0
:103A10002860D7E73C00002038000020DC030020AD
:103A2000D8050020004040404040404040404141D7
:103A30004141414040404040404040404040404083
:103A4000404040404005020202020202020202021D
:103A5000020202020220202020202020202020021A
:103A600002020202020290909090909010101010AA
:103A70001010101010101010101010101010101046
:103A800002020202020288888888888808080808DA
:103A900008080808080808080808080808080808A6
:103AA0000202020240000000253A0008CC3A000859
:103AB0000000002044000000542E0008103B0008C5
:103AC0004400002094090000642E000800A24A046B
:103AD00000000000000000000102030406070809BE
:103AE00000000000010203040102030406070809A4
:103AF00002040608000000000000000000000000B2
:103B000000000000000000000000000000000000B5
:0400000508000145A9
:00000001FF
